:020000040000fa
:080000000002040000000000f2
:020000040000fa
:100400002f502200007f2200000188000000000021
:100410000a00070011000700000020000000e000b3
:10042000020032000000020000000000c8120200ba
:10043000010000000040da000000fe004440a90076
:10044000a04e23000000e000030032000000200066
:10045000a00188004440a8000000060000282000f9
:10046000110020001500370062004000e0804800c5
:10047000910188009001ba0062004000e0804800cd
:10048000910188009002ba0062004000e0804800bc
:100490000002eb006028e10004003a000059eb0084
:1004a0008301e900fdff3e00040037006128e10000
:1004b000010032000082eb00050007009101880076
:1004c0001001ba000200e000e7ff3a00000005005a
:1004d000910188008002780062004000e0804800be
:1004e0003559ba008301e900080032002559ba00e5
:1004f0008301e900050032000400e000f4ff32004f
:1005000015d9ba008301e900f1ff3a0000000600a6
:10051000fccd0400000000004811040001000000b0
:1005200084b90400000000000e7404000000000004
:10053000bc0f040001000000a6160400010000002a
:100540006c150400010000001e04040000000000ff
:100550008a05040000000000ce0f04000000000027
:1005600000000400000000008001eb0008003700dc
:10057000e342780063c278008301e80084cf520030
:10058000030032000080eb00040039001000050079
:10059000828f5100f6ff3a000000eb0000000600d9
:1005a00000037800800178000002eb0001003700b2
:1005b0008059780084025100820f520009003200f5
:1005c00064c078000402e8000004e000f8ff3a008c
:1005d000830078008058eb0005804100808f500038
:1005e000fcff3a0006007800000006008001eb00e6
:1005f00002003700817178008301e800828f51008a
:10060000fcff3a00000006008001eb00020037000a
:1006100061f079008301e800828f5100fcff3a000d
:1006200000000600889fbe00e30440000900a1000e
:10063000808f54004a003600e38f540001003e00d2
:1006400049002000628580000200e00002003200c4
:10065000820078000c003700e10a21000300370017
:10066000908f5400230036008080e800110078004d
:100670000000e000faff3a000f003700908f5400ae
:100680001c0036008080e800110078000000e000c7
:10069000faff3a0012017800e10a21000300370056
:1006a000908f5400130036008080e800110078001d
:1006b000820f5000faff3a0058858000890f5400dd
:1006c000010031000904780008007800a701070044
:1006d0000000e00004003a00890f540020003200be
:1006e0000804d100f5ff3700081878001f00070044
:1006f000d4ff370011017800920178006480510026
:10070000890f50000300310012009000800878002b
:10071000070037000900410080087800920190002e
:10072000130098001100780012881400090978005d
:10073000910078000100e0000500320011009000f7
:100740000000e000020032000180e80001003700f4
:100750000000eb00608588000280e800010037009f
:100760000000eb004f04be00000006000000e000a7
:10077000310032008080e90091027800e38f52005e
:100780002d0036000508a3002b003a00728580007a
:100790000200e00002003200828f500004003100ad
:1007a0000208780071858800160037000301780080
:1007b000920190000300e00002003200818f51009e
:1007c000faff39001202780004004100808f5000c7
:1007d00019003900810f500003003a00050942005a
:1007e00082007800070037000300e00003003200b9
:1007f00005804000808f51000f0039009300980061
:1008000011019800110190000200e0000a0032007e
:1008100011804000820f500007003a00c00a2100fa
:100820000008eb00110090001101780090084100d1
:10083000100090009000980000000600889fbe0005
:1008400080047800010078000204780089017800b3
:10085000110020004c010700880f500001003200f9
:100860008004eb00090078004f04be000000060081
:100870000000fa004fb99700e8815700a1fc200062
:10088000e0412000950107000080fa00000006000a
:10089000a1fc20004a0207000000e000060035002d
:1008a000a1fc2000a00020008b0207008000eb00cc
:1008b0000000e00001003d008080eb0001007800b6
:1008c00000000600ec874700889fbe008a9fbe009c
:1008d0008c9fbe008e1f7800f0b79f0081bf9f00e5
:1008e0008204780000047800010037000804e80062
:1008f000184778000e00fb009d0207000000e00092
:10090000faff3a00d0c2b300804f57000500320012
:1009100000c0e900804f5700020032000047780015
:10092000010037000804e8000900e0004500350038
:10093000e18f54004300320040022000808f5400b9
:1009400040003c000900e0000e003400f08f54002d
:100950001a003a0000c3b300984f100016003a0086
:100960009840900080c7b30080cf50000300320051
:1009700080c5b30080cf50000f003a000884e80023
:100980000e003700a900200000c3b300984f1000ec
:100990000a003a009840900080c7b30080cf500012
:1009a000040032008900200080c5b30080cf5000d1
:1009b00002003a000884e8000901200008057800d8
:1009c000010037000a05e80000c3b3009a4f100089
:1009d000fcff32008a0578006066b8000e00370020
:1009e000f003210000425200c4ef9f006149b900aa
:1009f0000c00be00930707004fea97000401fb00bc
:100a0000cf91de008b05e800ccb79f00ddb79f00db
:100a100000064100818649001b00fb005c020700c4
:100a20008000780009017800f00321005f020700d0
:100a3000000278000000e000e9ff3a008b0f54004c
:100a400006003a000fb897000000e00029003200cd
:100a5000ffb0970001087800260037008a80550013
:100a6000a001210060c07c000000fb00008050005d
:100a7000160033004240a9000f003c004fe99700e8
:100a80000200fb00cf80de000000560081805e0087
:100a9000800f5600818f5e00070039006149b90060
:100aa0008c0607004fb19700dfb19700820f50000e
:100ab000838f580005003200200220002078880033
:100ac0000086eb008086eb0005003700d0c2b30043
:100ad000804f570002003a0060061600e0861e00b4
:100ae0008fb997000300e000030032008b09780003
:100af000010037006066b8000c00be004f077800a8
:100b00004f06be004f05be004f04be00cf00b1002f
:100b100000000600881f780002047800bafe070073
:100b2000080040004f047800000006000000fa00b2
:100b3000881f7800000478003fb99700ea815700c9
:100b400080007800a0582000e400070080007800b2
:100b50000000e000020035000040eb0000f47800e7
:100b6000010078004f0478000080fa0000000600c1
:100b7000040037000204e0000a0032000000e80030
:100b80008100e80010417800914f5100f9ff3200d8
:100b90000081eb0010407800914f500004003900b4
:100ba000020037000001eb000100370012002000b6
:100bb0000200780000000600800078000100370085
:100bc0000000e8001004e000fdff3a0001005000c2
:100bd00000000600881f7800f08480000000e0001c
:100be0000100320000000100c08480000000e0002d
:100bf0000100320000000100807880000000e00069
:100c00000100320000000100507880000000e00088
:100c10000100320000000100000a21001004e00081
:100c200026003a00d0848000e18480000004eb00bc
:100c3000d26026009301200002070700f2352f0042
:100c4000e3c6230000004100818049000804e80059
:100c5000e80f5400f6ff3a00d0848800e184880051
:100c600028f12000d260260093012000d08480006b
:100c7000e1848000f3060700f2352f00e3c623006d
:100c80000000410081804900d0848800e184880010
:100c9000009cbe0020f92000800f5400f1ff3a00b4
:100ca000707c8000817c800060788800717888008a
:100cb00011c0b300000a210001487800d26026006c
:100cc00093012000d0848000e1848000dd060700cd
:100cd000f2352f00e3c62300000041008180490067
:100ce000d0848800e1848800c2f0200012017800de
:100cf0007f0161004211dd0023f12000030141006a
:100d00001202be0064788800757888000089be00f1
:100d100060788000717880004008de0000f0a1005b
:100d20004f04780000000600881f78000004780057
:100d3000f08480000000e0000100320000000100ab
:100d4000000a21000048eb00c08480000000e000a1
:100d500001003200000001006140b800d08488002a
:100d6000e18488004f047800000006000000e000e5
:100d7000030034005a050700e10f400001003a006b
:100d80000000eb0000000600889fbe008a9fbe00a6
:100d90008c9fbe008e1f7800810678008304780047
:100da000000678000288b900000778000000e00023
:100db00002003a0000017800420037000d00e00018
:100dc0004000320000057800c900900069009000e2
:100dd000808f500004003900090078007d01070071
:100de0000000e000290035000040200019006000ec
:100df00003003a000a047800800578000b003700f1
:100e00000a017800a10020000c00780067010700ab
:100e1000800578000000e00002003a000a04780033
:100e2000020037000c0050000004e800c9019000e7
:100e30006900900003005000880f5000020031004c
:100e4000000478008005eb00080178008c00780031
:100e500003007800ecfd0700080646000805550071
:100e60004900900000004400c00498000b00e0001e
:100e70000400320009007800990107000000e0003a
:100e800002003a000a00e000cfff3a000080200094
:100e9000190060000200320009007800900107008c
:100ea00000c02000190060000200320049009000dc
:100eb000e00498000a005700110009000d80d800d6
:100ec00000017800020078004f0778004f06be004e
:100ed0004f05be004f04be00000006006200fa008d
:100ee000889fbe008a9fbe000004be0002057800f5
:100ef0008300780060f92f000f004000b501070063
:100f000088979f0099979f000000eb00a09f9f008b
:100f10009a4578000b80fb000000ea00cf04de0059
:100f200050c2b30080cf550002003200090478009f
:100f3000010037000904e9000800e0000b0034005c
:100f40001f909700080178008a0078008f91970021
:100f50000300010090979f000000e0009300320022
:100f60002f98970000004400a09f9f0009054500ae
:100f700050c2b30080cf5500040032000b04e000e3
:100f8000e3ff3a002f989700890037000000eb003c
:100f9000809f9f00f0979f00e0979f00d0979f0051
:100fa000c0979f00b0979f00c09f9f000900370027
:100fb000200921000080500000004000610821004d
:100fc000e10078004f98970001007000c09f9f00db
:100fd0000a05e8001a4478008800fb002009210077
:100fe00081010700800078000000e000f0ff3a0077
:100ff000a0c2b300804f54000e003a00bf88970093
:101000000180e900b08f9f0010007800b09f9f0022
:101010000000e00005003d000000ea00b09f9f00d6
:101020004f9897000020a000c09f9f000a05e8008d
:1010300010003700b19f9f0009003700bf9897004c
:10104000f0ff2700808f5000040032006a08b900ca
:101050000000410003004000b09f9f000a05e80027
:101060001a01fb0003fd2f0003004100e90f5000af
:10107000f2ff3600e0c2b3009a4f100004003200c5
:101080000080eb00909f9f008a0478001c003700ce
:101090008a04e800a0c2b300994f100007003a008c
:1010a000bf8897000180e900b08f9f001000780092
:1010b000909f9f008a84e800110037000000eb0039
:1010c000909f9f00090037009f989700f0ff27002e
:1010d000808f5000040032006a08b900000041000f
:1010e00003004000909f9f008904e8001901fb0065
:1010f00003fd2f0003004100e90f5000f2ff36000e
:10110000194478008800fb00200a210036010700fe
:101110000000e00002003a000044780001003700bf
:101120008904e800a87f9f0080c6b300804f540068
:1011300004003a00994f14000a003a00664050003b
:1011400006003700c0c6b300804f540005003a00c7
:10115000994f140003003a0065404000a07f9f00b3
:101160008904e8000905e800cbfb2f008f854500c6
:101170001901fb0060f92f000f0040000084e80017
:101180008b01780080007800080078001f010700bc
:101190000000e00005003a008b00780008007800ad
:1011a0005d0207000000e00059ff3d000080eb00f9
:1011b0004f05be004f04be000080fa00000006008c
:1011c000889fbe008a9fbe000005780081047800d9
:1011d0002d003700c900900069009000808f5000fa
:1011e00004003900090078007a0007000000e000e0
:1011f0003500350000402000190060000900320071
:10120000a10020000a0078000d0307008005780087
:101210000000e000040032000a0050000004e80072
:1012200004003700800578000a00780062fe07009d
:1012300000047800c901900069009000030050008c
:10124000880f500002003100000478008005eb0098
:10125000080178008a00780003007800eafc0700a3
:10126000080545004900900000004400c0049800b3
:101270000b00e0000400320009007800980007002d
:101280000000e00010003a001a04e000d1ff3a002c
:10129000008020001900600004003200090078007e
:1012a0008f0007000000e00007003a0000c02000a7
:1012b000190060000500320049009000e004980029
:1012c0000000eb00010037000080eb004f05be007e
:1012d0004f04be0000000600889fbe008a1f7800f1
:1012e000800478000104780000457800c100900077
:1012f00068009000808f50000400390008007800da
:10130000340007000000e0001500350048009000a0
:1013100009587800400498001800780000b8a3002d
:1013200004003a0000a8a30006003200ea4f55006e
:1013300004003a0008007800690007000000e0009f
:1013400007003a0000c020001800600002003200d0
:1013500048009000600498000a80fb0001003700fc
:101360000080eb004f0578004f04be00000006002f
:101370006900e100040035006d00e1000300340065
:101380000002b1000100320000000500100005005d
:10139000800078001104b100030035009101b10014
:1013a00001003c000050a000000006008001eb009e
:1013b000040037008301e80090cf100004003200e1
:1013c0000000e800828f5100faff3a000000eb00b5
:1013d00000000600889fbe0000047800c001900055
:1013e000600090008000eb00808f510039003900d0
:1013f000180178002000290000006100e20f500071
:1014000007003200002020000200e000010035004b
:1014100000202400000c71008080eb002d003700bc
:101420000100260001006100810f500008003a0011
:1014300038009000808f51000500390008007800c6
:10144000270007008080eb000000e00021003a0048
:1014500000c020001800600017003a00a8049000a7
:101460006002200008004000808f540012003a0003
:10147000002020006bfc070080007800200498000a
:101480000000e00005003a00290498004904980093
:101490000900e80030049800060037001860a0003a
:1014a000400498000020b00030049800410c9800df
:1014b000510c98006d02070028009000500498001d
:1014c000380090006004980000002600180c70009e
:1014d0008000eb00010078004f04be000000060011
:1014e000889fbe00000478000000e0000e003a0073
:1014f0008004780028f92000180078000000e0003f
:1015000004003200f6ff07000000e00001003d008b
:101510008084eb000884e80020fa2000800f54004b
:1015200029003200f4ff370000002200180060009c
:1015300024003200a8049000080037000901500080
:10154000384090000000fb00890078007a03070013
:101550000000e00013003400808444004800900044
:10156000808f5400f5ff3900280090004004980057
:101570001801780000c02000000061000200320065
:10158000a800900001003700b8009000000024007f
:10159000000061000a003200610498008004eb0042
:1015a000090037002800900040049800600498006b
:1015b000500c98001890a0008084eb0002003700c7
:1015c000510c980080047800090078004f04be0098
:1015d000000006000200fa00f1bf9f000108780039
:1015e0000080fa0000000600040037000204e0005a
:1015f00001003a00000005000000e80010417800fa
:10160000814f5100f9ff3a0000000600889fbe009c
:101610008a1f780000047800010278008244780074
:1016200003057800e0c6b300804f5100d2003200bd
:1016300015003c006b405000804f510024003200e8
:101640000a003c0070405000804f51000f013200f2
:1016500065404000804f51007400320050c2b3001a
:10166000804f510020013a001c01370040c6b300f2
:10167000804f51001b00320065404000804f5100f8
:1016800019013a001700370030c7b300804f5100ee
:10169000fe00320007003c0064405000804f5100c3
:1016a000620032000040e800804f51000e013a0015
:1016b000e700370050c7b300804f51005b00320095
:1016c00063404000804f510007013a005700370047
:1016d0009180e900010a780078009000917178000b
:1016e00007013700a8609000c0c6b30080cf50004b
:1016f0000a003a009400780064805000000a7800e4
:101700001000be004f89de00cf91de000002be0057
:1017100002037800820378001300370010c7b3007b
:1017200080cf500003003200a0c6b30080cf50002d
:1017300006003a009400780068805000000a7800a3
:101740003002be002003be00070037001480e9000d
:10175000000a78001000780000027800cfa2de00b6
:101760000503780086037800049cbe000694be0042
:10177000a860900080c6b30080cf50000e003200f9
:1017800020c6b30080cf500005003a000400fb00e3
:10179000cf80de0001017800820178000a00370066
:1017a00040c7b30080cf50000300320066404000c5
:1017b00080cf500006003a0004007800cf80de00a1
:1017c0000101780082017800009cbe000294be00f6
:1017d0003800be002801be00e00f5000e08f580026
:1017e000e00f5900e08f590003003d0078009000a1
:1017f000d1c2b3000a003700081090000018a300ff
:101800000300320078009000b1c2b300040037003a
:101810000008a300530032007800900001c2b3001a
:10182000017578000000e8004d003700a8609000c6
:10183000c0c6b30080cf500006003a009400780084
:1018400064805000000a78001002be006033b800c7
:101850001300370010c7b30080cf500003003200e0
:10186000a0c6b30080cf500006003a009400780074
:1018700068805000000a78003002be002003be00dd
:10188000070037001480e900000a78001000780093
:10189000000278000500200006002000070020005c
:1018a000049cbe000694be00a860900080c6b300f1
:1018b00080cf50000e00320020c6b30080cf500011
:1018c00005003a000480fb00010020000200200017
:1018d000030020000a00370040c7b30080cf50004b
:1018e000030032006640400080cf500006003a00fe
:1018f0000400780001002000020020000300200006
:10190000009cbe000294be00081090000038a300a6
:10191000140032003800be002801be00e00f500065
:10192000e08f5800e00f5900e08f59000d003200a1
:1019300080c7b30080cf54000300320080c5b300dd
:1019400080cf540007003a007800900001c3b30034
:10195000017578008000e80009f578000080e80053
:101960007004980078009000000045006004980022
:101970008940780042003700a8609000c0c6b300dc
:1019800080cf5000250032000a003c006440500027
:1019900080cf50002800320000c0e80080cf500007
:1019a000140032006840500080cf500022003a00fe
:1019b0000a00370040c7b30080cf50001e0032003d
:1019c0006640400080cf50001b003200694050004c
:1019d00080cf500018003a00060037001480e9005c
:1019e000000a780010007800485c900008487800f1
:1019f000450037001480e900000a780010027800e2
:101a000068089000cf80de00010178008201780034
:101a1000009abe000292be003b0037001480e9002d
:101a2000000a78001001780068089000cf80de007e
:101a30000089be00340037001480e900000a7800f5
:101a400010007800680c9000080878002e0037001d
:101a50001180e9008008780010007800cf80de0057
:101a60000101780082017800009cbe000294be0053
:101a700078009000000045006004980081c7b30022
:101a800008007800510107001f0037001480e900aa
:101a9000000a78001000780060049800580990004f
:101aa0000200e00002003d0043fc0700090037008f
:101ab0008000eb003dfe0700800078000000e000a1
:101ac00003003200680090000080500001003700e1
:101ad00058089000100c98000b0037007800900018
:101ae00002757800060037007800900080004500fd
:101af0000904e00001003a0059c2b30089487800a7
:101b00000000e800700498000000eb004f0578002a
:101b10004f04be00000006000400fa00889fbe00cb
:101b20008a9fbe008c1f78000004780001067800b0
:101b300070089000f80090000100500088089000a4
:101b4000010050009808900001005000a808900083
:101b500001005000b808900001005000c808900033
:101b6000810550000002220090bf9f000003230067
:101b7000a0bf9f00081090000028a30018003a00a2
:101b80000b00e000160034008b0478000905780093
:101b9000e28f5400020036002a00200002003700c5
:101ba0000900e0000b00340058009000c8019000cc
:101bb0000a017800ee8057000300010050049800ed
:101bc0000000e00096003200680890000000450028
:101bd000600c98008a8454004240a900ebff3c004e
:101be000780190000200e0000b00340058009000e3
:101bf000c80190008c007800030001005004980098
:101c00000000e0008600320068089000f8009000b4
:101c100001004000600c9800880c90000900e00072
:101c20001500340009057800e28f540002003600e8
:101c30002a002000020037000900e0000b003400f9
:101c400058009000c80190000a017800ec8057000d
:101c500003000100500498000000e0007000320012
:101c60006808900000004500600c98008a845400c9
:101c70004240a900ebff3c00180990000200e00080
:101c80000b003400e800900058009000c80190005c
:101c900003000100500498000000e00060003200e2
:101ca000680890009808900001004000600c9800bf
:101cb000a80c90000900e000150034000905780028
:101cc000e28f5400020036002a0020000200370094
:101cd0000900e0000b00340058009000c80190009b
:101ce0000a017800ec8057000300010050049800be
:101cf0000000e0004a003200680890000000450043
:101d0000600c98008a8454004240a900ebff3c001c
:101d1000380990000200e0000d003400e800900057
:101d2000180890008080400058009000c801900082
:101d300003000100500498000000e0003800320069
:101d400068089000b808900001004000600c9800fe
:101d5000c80c90000900e000150034000905780067
:101d6000e28f5400020036002a00200002003700f3
:101d70000900e0000b00340058009000c8019000fa
:101d80000a017800ec80570003000100500498001d
:101d90000000e000220032006808900000004500ca
:101da000600c98008a8454004240a900ebff3c007c
:101db000081090000028a3001b0032000b00e00078
:101dc000190034008b04780009057800e28f540074
:101dd000020036002a002000020037000900e0005f
:101de0000b00340058009000c80190000a017800f0
:101df000ee80570003000100500498000000e0004e
:101e0000070032006808900000004500600c980050
:101e10008a8454004240a90003003400eaff3700de
:101e20000080eb00010037000000eb004f06780057
:101e30004f05be004f04be000080fa0000000600ff
:101e40008001eb0010417800814f510001003a0001
:101e5000800178000204e000020032000000e80087
:101e6000f8ff37000300780000000600881f7800a4
:101e7000080b21001804e00004003a00e0fc2000f8
:101e80000a01070020c0b300004c78004f0478001e
:101e900000000600889fbe000004780090fd070047
:101ea0008004780000042000180060000200320066
:101eb000280090002dfa07000000eb002004980095
:101ec000384090000004e000050035000000fb00f1
:101ed0004d0107000000e000010032008084eb00ab
:101ee000181090000000e000080032004f010700c9
:101ef0000000e000010032008084eb001810900028
:101f00001afa07000000eb001014980000082000e7
:101f100018006000100032000000eb0021f92000e2
:101f2000910f1400070032000000e8008180e800f3
:101f3000e80f5000faff3a00080078000bfa07009b
:101f4000130037000000400021f92000010040008c
:101f50000008eb00f8ff3700000c780000c0eb0031
:101f600030449800600220000800400020049800df
:101f70004004980050049800400c980060049800b9
:101f8000500c98007004980076004400000c9800f3
:101f9000090078004f04be0000000600881f78008a
:101fa00008fa2000180078000000e000010032006c
:101fb000b8ff07000884e90000f92000800f5400f2
:101fc000f8ff3a004f04780000000600ef02b0006e
:101fd000889fbe008a9fbe008c9fbe008e1f780027
:101fe0000006780050072100c0b79f0080c5b300ed
:101ff00080cf50000800320042062100c2b79f0087
:102000007740400080cf500003003a00830020005a
:10201000b3b79f000a00370080c7b30080cf5000dd
:1020200005003200a4002000b4b79f0080c5b300b3
:1020300080cf500002003a0000012000b0b79f009e
:102040003c04be002c05be0040c6b30080cf50004b
:10205000030032006540400080cf50000b003a0082
:10206000e00f5400e08f5c00e00f5d00e08f5d004a
:1020700006003d006000b8006011b8000804500080
:10208000898458000a0559008b855900e00f5400d7
:10209000e08f5c00e00f5d00e08f5d0004003a001f
:1020a0005c0890008d0120000000e0000c00320070
:1020b000bfb0970001027800cfa2de0005037800d0
:1020c000860378000800be000a01be006402070013
:1020d0004fb2970064407800d0df9f007d01200060
:1020e0003fb0970000027800cfa2de000503780021
:1020f000860378000800be000a01be0051020700f6
:10210000009ebe000296be000d00e90061fc2f009b
:102110008f804000008740001e0037003fb19700cd
:1021200002047800cfc4de00090578008a05780033
:102130000802be000a03be007fa897008fb0970078
:102140001fb19700afb1970049020700d0b79f00b9
:10215000e1b79f00f2b79f0083bf9f008d06e900a3
:102160000802be000a03be00c70207007faa97004c
:1021700000005200cfb09700615778005fb0970021
:10218000efb097007fb197008fb99700009ebe0017
:102190000296be003c00be002c01be00f0af9f00c6
:1021a00081b79f0092b79f00a3b79f00e00f500038
:1021b000e08f5800e00f5900e08f59000200340012
:1021c0000d00e000d5ff3c00bfb09700e88f500045
:1021d00010003a000c1090000038a3000d003200ef
:1021e000f78f560006003e0062fc2f000f014100f1
:1021f0008d00410000c3b300914f10000500320074
:102200008d06e90000c3b30063fc2f008f814100fd
:1022100080f17e0078811600120e98006c0090000c
:1022200063fc2f008f8141008d804100f6f807008c
:102230001c0990005c089000800f510006003d00d2
:1022400002005000000e98000c1090000040a10009
:10225000001698000f0037000000e0000d003d0060
:102260000c10900074006000f00f500009003a005c
:102270007c089000fc009000010050008c08900049
:1022800001005000020050004240a900010034004b
:10229000000e98004f0778004f06be004f05be00a5
:1022a0004f04be00ef02b1000000060000017800fc
:1022b000000020000000e000080032000000800064
:1022c0000000e000050032000000e9000000880086
:1022d000000040000100800002b07800000006000d
:1022e000889fbe0080047800060fe20004003a00d8
:1022f0000000eb00560007000000e0000a00350077
:10230000307880000900e00002003a000004780004
:102310000600370000047800090040004c00070068
:102320000000e00001003d000084eb0008007800a0
:102330004f04be00000006000a00fa008001780089
:10234000e20f500025003e0040788000e10f500071
:1023500008003200802320000000e0000500320069
:10236000042320002523200046232000800178003c
:1023700004003700042220002522200046222000ed
:1023800083222000144090000004e0000300350088
:102390008009eb0000002800140a7000154090002e
:1023a0000028a30001003a0015a0a0008001eb0066
:1023b00007003700154090000008a300fdff320021
:1023c00063c078000000fb00000b78008301e80088
:1023d000828f5100f7ff3a000800370030002000dc
:1023e000b0bf9f00c3bf9f00d1bf9f00e2bf9f004f
:1023f0006a80570000c0da006fb9970002007800c9
:102400000080fa00000006000a00fa001100200017
:10241000b1bf9f00c0bf9f006a80570000c0da00b4
:102420004fb897000080fa00000006000a00fa008a
:1024300051002000b1bf9f00c0bf9f006a805700bd
:1024400000c0da005fb897000080fa0000000600c4
:10245000800078000000e00004003a00200b21001a
:102460003078880001017800060037000081eb0019
:1024700020502200808f500002003e0031788800fa
:102480000001eb000200780000000600839f680056
:102490000100e00002003d0060001000e080180034
:1024a0000300e00002003d0060011100e08119001e
:1024b000080007004f00e00002003b006000100031
:1024c000e080180000000600020007000400be00c3
:1024d000000006006022b800060220000000d000c4
:1024e0008180d2000482d2008582d2000000a00048
:1024f0000202520083825a000300310002024200ad
:1025000083824a000000a1000603e900f3ff3a00bd
:1025100000000600889fbe008a9fbe00010578006b
:102520000100e0000400350008003c000000e0006d
:10253000200032000500370060001000e080180025
:1025400002003b0001f02c001a0037000004be001e
:102550006011b8006b0920000982cf000200390029
:102560000882cf000441b000694252000e003200e0
:1025700008003b0082817100610164008904d10080
:102580000884d3008b05e8000442e800f9ff3a0014
:10259000050037000804440089844c008b05e900dd
:1025a0000442e900fbff3a005b0007000af0a700c5
:1025b00001f0a0004f05be004f04be000000060061
:1025c000889fbe008a9fbe008c1f78000004be005a
:1025d000770007000478a30026003a006120e1009c
:1025e0002500320009f8a30025003a006420e1002c
:1025f00021003200f507b1000508a30002003200f7
:1026000000004000818048006044b80003102000b2
:1026100002002000000040008180480008054400be
:1026200089854c000a0541008b8549000a05500048
:102630008b855800030033000a00be0002047400ba
:10264000838474008301d1000281d300830f710061
:10265000f0ff3a008904d1000884d30060014900ea
:1026600082017800c1adde00fb07b0002a00070040
:102670006d0037000960a0000800be006a00370046
:102680001202200022788800f0ff2f00f1ff2700bf
:10269000650037000001be00450007000470a70078
:1026a00003f0a1006509b100160032000d003500ed
:1026b0006828e10006003500f0ff2f00f1ff270039
:1026c0000300e00013003b000100280000000500ab
:1026d00000004000818048008502e900fcff3a00cc
:1026e00008003700f88f420002003c008000eb0039
:1026f000000005008100d1000080d3008502e800c1
:10270000fcff3a000300e00002003b006000100004
:10271000e080180000000600810020006180550064
:102720000b003d000b00200061fe2f000100e100c6
:102730001d00340082817100610164008904d100b0
:102740000884d3000000e800faff3a00710020007e
:1027500061006400030070000200600009003200a4
:1027600061044400e0844c000988a50005003200a3
:102770008b05e8006808e10002003a008904d100f6
:102780000884d300f20f20000258e10005003d004c
:10279000c75ddd00f907b200898075000800780088
:1027a000000006000bf827008b00780000000500f1
:1027b000c70ade00f107b200f50fb20008003200d0
:1027c000e1cf4200020032000170a00024000500a9
:1027d000810f70000100320004080500440005006c
:1027e000810f700002003a00140005008502e90024
:1027f0000000400081c04800fcff3b000170a000c9
:10280000240005000200be006450e100050036000f
:102810006420e100020036000968a30001003a00cc
:102820000800be000160a0004f0678004f05be0002
:102830004f04be0000000600f0ff2f00f1ff27004c
:10284000f9ff3700020ab900001bb9000200b80006
:10285000810042008100430000000600881f7800cc
:10286000000478005001be004000be00040040009b
:10287000858048000601490087814900009cbe0010
:102880000294be000400e1000588e1000690e1002a
:102890000798e10002003100680044001008e800d9
:1028a0004f04780000000600f4874700889fbe00b0
:1028b0008a9fbe008c9fbe008e1f78000205be005e
:1028c0000004be00d4b79f00e5b79f00f6b79f0095
:1028d00087bf9f000000eb00c0b79f00b0b79f000c
:1028e000a0b79f0090b79f0080b79f000d04200005
:1028f000bfb097004fb09700000140000000e0001b
:102900000f003d004f08de0000007100c0b79f00bf
:102910009e00070001003d0012002000a1000700fa
:1029200001003d0012002000a6000700b1000700d2
:10293000b60007000f004000c8ff07002200370064
:102940004f08de0000067100ccb79f008f00070023
:1029500001003d00120020009200070001003d0030
:102960001200200097000700a20007000fb2970096
:102970009fb297002fb39700bfb39700a90007003d
:102980000000520081805a0002015b0083815b00dd
:1029900080b79f0091b79f00a2b79f00b3b79f0079
:1029a0000007eb009f0007000020e10001a8e10004
:1029b00002b0e10003b8e100010031001e00200078
:1029c0000e005600c0b79f004fb297000400e00011
:1029d0000700350010002000010020006011b80041
:1029e00008047000898470000a0571008b857100ed
:1029f0008d06e900beff3a000400e00003003d0040
:102a0000820007000f00400094ff07004fa89700c6
:102a10000000e00004003a000fb497009fb4970054
:102a20002fb59700bfb59700940007004f077800b7
:102a30004f06be004f05be004f04be004f01b1005f
:102a400000000600881f780018002000881f78000a
:102a500095ff07008f87e9004f047800000006000b
:102a6000801feb0090ff07008f87e9000000060041
:102a7000889fbe008a9fbe008c1f78006e000700f2
:102a800007003d0073000700e00f5b00e08f5b0074
:102a900007003d00320007000006eb00040037008d
:102aa0003400070002003d002a0007001c0020003f
:102ab00072000700e3ff07000203be000002be0031
:102ac0000c00e00001003200220007000400be00fc
:102ad0000601be004f0678004f05be004f04be0041
:102ae00000000600889fbe008a9fbe008c1f7800f1
:102af0005100070005003d0056000700e00f5b0095
:102b0000e08f5b0006003d0004003700190007005d
:102b100003003d006000b8006011b800100007001d
:102b200056000700ceff07000203be000002be00f1
:102b30000c00e00001003200060007000400be00a7
:102b40000601be004f0678004f05be004f04be00d0
:102b5000000006006000b8006011b80000003700f7
:102b600004025000858258000603590087835900eb
:102b7000000006000006eb00e00f5200e08f5a0054
:102b8000e00f5b00e08f5b0000000600018040006a
:102b900090b79f000001eb008fb097000100e000ac
:102ba000000006000200700090b79f000180400006
:102bb00080b79f000001eb00ffa897000100e00034
:102bc000000006000200700080b79f0001804000f6
:102bd0006faa9700cf20de0001007000f0af9f00c9
:102be00004024200250007004f18de0000027200b8
:102bf00000000600e4af9f000804440089844c00f4
:102c00000a054d008b854d00000006003fb297007d
:102c1000cfb297005fb39700efb3970000fe2f008d
:102c2000000006003fb09700cfb097005fb197005b
:102c3000efb19700000006000205be000004be00d0
:102c4000e00f5000e08f5800e00f5900e08f59006e
:102c5000000006006000b8006011b80008045000d1
:102c6000898458000a0559008b8559001c002000f2
:102c7000e00f5200e08f5a00000006000800be007e
:102c80000a01be0000000600889fbe008a9fbe00a9
:102c90008c1f78000205be000004be000006eb0099
:102ca000e00f5000e08f5800e00f5900e08f59000e
:102cb00007003d006000b8006011b8000804500033
:102cc000898458000a0559008b8559001c00200092
:102cd000e00f5200e08f5a00e00f5b00e08f5b00d6
:102ce00002003d000f0007000c00a2000800be001b
:102cf0000a01be00120007000203be000002be006f
:102d00000c00e00001003200060007000400be00d5
:102d10000601be004f0678004f05be004f04be00fe
:102d2000000006006000b8006011b8000402500006
:102d30008582580006035900878359000000060069
:102d4000889fbe008a9fbe008c9fbe000404b8000e
:102d50000506b8008904460060854e000606b800e6
:102d60000a054600e0854e000706b8008b054600c0
:102d7000040eb800890446000a854e00e0854d0027
:102d8000050eb8000a0546008b854e00060eb800f9
:102d90008b0546000416b8000a0546008b854e00d8
:102da0000516b8008b054600041eb8008b054600ca
:102db0000800be000a01be004f06be004f05be005f
:102dc0004f04be0000000600c21188008011880078
:102dd0009111880001003700b011800032c2bf009d
:102de0000008a300fcff3a0087c0a900000006000d
:102df00087c0a90087e0a900e7416000310b2000ef
:102e00009140780082cfb30082c0600083c0700020
:102e10008000fd00b3e0b7008000fd0001c7b300f3
:102e200081416000310b200091407800f2c8b3006e
:102e300082c0600083c070008000fd00b3e0b70076
:102e40008000fd00680160004311de004611dd00d6
:102e500071092000914078000164a10082c07000d7
:102e60008000fd0097e0b7008000fd000008b20080
:102e70004700de004700dd00710920009140780026
:102e80000174a10080c070000100780097e0b700d5
:042e90000000060038
:020000040000fa
:020000040002f8
:04aff800fdfb00005d
:020000040000fa
:020000040002f8
:04affc007f3f000093
:020000040000fa
:10000800d21a0100d21a0100d21a0100d21a010034
:10001800d21a0100d21a0100d21a0100d21a010024
:10002800d21a0100d21a0100d21a0100d21a010014
:10003800d21a0100d21a0100d21a0100d21a010004
:100048009e170100d21a0100d21a0100d21a01002b
:10005800d21a0100d21a0100d21a0100d21a0100e4
:10006800d21a0100d21a0100d21a0100d21a0100d4
:10007800ccc70000d21a0100d21a0100d21a01001e
:10008800d21a0100d21a0100d21a010072b300007c
:10009800fe180100d21a0100dc160100d21a010074
:1000a800d21a0100d21a0100d21a0100d21a010094
:1000b800d21a0100d21a0100d21a0100d21a010084
:1000c800d21a0100d21a0100d21a0100d21a010074
:1000d800d21a0100d21a0100d21a0100d21a010064
:1000e800d21a0100d21a0100d21a0100d21a010054
:1000f800d21a0100d21a0100d21a0100d21a010044
:10010800d21a0100d21a0100d21a0100d21a010033
:10011800d21a0100d21a0100d21a0100d21a010023
:10012800d21a0100d21a0100d21a0100d21a010013
:10013800d21a0100d21a0100d21a0100d21a010003
:10014800d21a0100d21a0100d21a0100d21a0100f3
:10015800d21a0100d21a0100d21a0100d21a0100e3
:10016800d21a0100d21a0100d21a0100d21a0100d3
:10017800d21a0100d21a0100d21a0100d21a0100c3
:10018800d21a0100d21a0100d21a0100d21a0100b3
:10019800d21a0100d21a0100d21a0100d21a0100a3
:1001a800d21a0100d21a0100d21a0100d21a010093
:1001b800d21a0100d21a0100d21a0100d21a010083
:1001c800d21a0100d21a0100d21a0100d21a010073
:1001d800d21a0100d21a0100d21a0100d21a010063
:1001e800d21a0100d21a0100d21a0100d21a010053
:0801f800d21a0100d21a010025
:020000040000fa
:10020800d21a0100d21a0100d21a0100d21a010032
:10021800d21a0100d21a0100d21a0100d21a010022
:10022800d21a0100d21a0100d21a0100d21a010012
:10023800d21a0100d21a0100d21a0100d21a010002
:100248009e170100d21a0100d21a0100d21a010029
:10025800d21a0100d21a0100d21a0100d21a0100e2
:10026800d21a0100d21a0100d21a0100d21a0100d2
:10027800ccc70000d21a0100d21a0100d21a01001c
:10028800d21a0100d21a0100d21a010072b300007a
:10029800fe180100d21a0100dc160100d21a010072
:1002a800d21a0100d21a0100d21a0100d21a010092
:1002b800d21a0100d21a0100d21a0100d21a010082
:1002c800d21a0100d21a0100d21a0100d21a010072
:1002d800d21a0100d21a0100d21a0100d21a010062
:1002e800d21a0100d21a0100d21a0100d21a010052
:1002f800d21a0100d21a0100d21a0100d21a010042
:10030800d21a0100d21a0100d21a0100d21a010031
:10031800d21a0100d21a0100d21a0100d21a010021
:10032800d21a0100d21a0100d21a0100d21a010011
:10033800d21a0100d21a0100d21a0100d21a010001
:10034800d21a0100d21a0100d21a0100d21a0100f1
:10035800d21a0100d21a0100d21a0100d21a0100e1
:10036800d21a0100d21a0100d21a0100d21a0100d1
:10037800d21a0100d21a0100d21a0100d21a0100c1
:10038800d21a0100d21a0100d21a0100d21a0100b1
:10039800d21a0100d21a0100d21a0100d21a0100a1
:1003a800d21a0100d21a0100d21a0100d21a010091
:1003b800d21a0100d21a0100d21a0100d21a010081
:1003c800d21a0100d21a0100d21a0100d21a010071
:1003d800d21a0100d21a0100d21a0100d21a010061
:1003e800d21a0100d21a0100d21a0100d21a010051
:0803f800d21a0100d21a010023
:020000040000fa
:102e9400000000004e970000000000001c0000002d
:102ea4007f000000001c0000000b000098010000df
:102eb400000b0000d0010000000b0000080200001d
:102ec400000b000040020000000500007802000032
:102ed4000007000094020000000a0000b002000095
:102ee400000b0000e8020000000b000020030000bb
:102ef400001100005803000000100000ac030000a3
:102f040000060000e40300000008000000040000c4
:102f1400000800001c040000000b0000380400003e
:102f2400000a00007004000000060000a80400006d
:102f340000080000c404000000060000e0040000d3
:102f4400000b0000fc040000000b0000340500002e
:102f5400000b00006c050000000c0000a40500003c
:102f6400000b0000dc050000000c0000140600004b
:102f7400000b00004c060000000b0000840600005b
:102f8400000b0000bc060000000c0000f40600006a
:102f9400000b00002c07000000060000640700007e
:102fa4000006000080070000000b00009c070000e2
:102fb400000b0000d4070000000b00000c08000008
:102fc400000a000044080000001400007c0800000f
:102fd400000e0000d0080000000d000008090000e9
:102fe400000d000040090000000e000078090000f8
:102ff400000c0000b0090000000b0000e80900000c
:10300400000e0000200a000000100000580a000012
:1030140000070000900a000000070000ac0a00004e
:10302400000e0000c80a0000000b0000000b0000a6
:1030340000130000380b0000001000008c0b00008f
:10304400000e0000c40b0000000d0000fc0b00008b
:10305400000e0000340c0000000d00006c0c000099
:10306400000b0000a40c0000000d0000dc0c0000ac
:1030740000100000140d0000001000004c0d0000b2
:1030840000140000840d0000000f0000d80d0000a3
:10309400000e0000100e0000000d0000480e00009d
:1030a40000070000800e0000000b00009c0e0000d2
:1030b40000080000d40e0000000c0000f00e000018
:1030c400000b0000280f000000080000600f000043
:1030d400000b00007c0f0000000c0000b40f000087
:1030e400000a0000ec0f0000000c00002410000097
:1030f400000b00005c1000000007000094100000aa
:10310400000c0000b0100000000d0000e8100000ea
:103114000007000020110000000600003c11000020
:10312400000c00005811000000070000901100007e
:1031340000140000ac110000000d0000001200009b
:10314400000c000038120000000d00007012000096
:10315400000c0000a8120000000a0000e0120000a9
:1031640000090000181300000008000050130000bc
:10317400000d00006c130000000c0000a4130000fc
:1031840000110000dc130000000c000030140000eb
:10319400000c000068140000000b0000a0140000e4
:1031a40000080000d814000000060000f414000019
:1031b4000008000010150000000c00002c15000091
:1031c400000500006415000000000000000000007d
:1031d40000000000000000000000000000400000ab
:1031e40000c0000001c0000003c0000007c00000d0
:1031f4000fc000001fc000003fc000007fc00000df
:103204003fc000001fc000000fc0000007c0000046
:1032140003c0000001c0000000c000000040000026
:10322400000000000000000000000000000000009a
:10323400000000000000000000000000000000008a
:10324400000000000000000000000000400000003a
:103254006000000070000000780000007c000000a6
:103264007e0000007f0000007f8000007fc000001f
:103274007f8000007f0000007e0000007c000000d2
:1032840078000000700000006000000040000000b2
:10329400000000000000000000000000000000002a
:1032a400000000000000000000000000000000001a
:1032b400000000000000000000000000000000000a
:1032c4000400000004000000040000000e000000e0
:1032d4000e0000000e0000001f0000001f00000090
:1032e4001f0000003f8000003f8000003f8000007e
:1032f4007fc000007fc000007fc00000000000000d
:1033040000000000000000000000000000000000b9
:1033140000000000000000000000000000000000a9
:103324000000000000000000000000000000000099
:103334007fc000007fc000007fc000003f8000000d
:103344003f8000003f8000001f0000001f000000bd
:103354001f0000000e0000000e0000000e00000020
:10336400040000000400000004000000000000004d
:103374000000000000000000000000000000000049
:103384000000000000000000000000000000000039
:103394000000000000000000000000000000000029
:1033a4000000000000000000000000000000000019
:1033b4000000000000000000000000000000000009
:1033c4000000000000000000103000003030000059
:1033d4003030000030300000303000003010000089
:1033e4001000000030300000300000000000000039
:1033f40000000000000000000000000000000000c9
:103404000000000000000000330000003300000052
:1034140033000000330000003300000031000000de
:103424003100000000000000000000000000000067
:103434000000000000000000000000000000000088
:103444000000000000000000000000000000000078
:103454000000000000000000000000000000000068
:103464000000000000000000000000000000000058
:103474000000000000000000000000000000000048
:1034840002400000064000000440000004c00000a8
:103494003fe00000088000000980000009000000ef
:1034a4007fc0000013000000120000003200000082
:1034b40022000000260000000000000000000000c0
:1034c40000000000000000000000000000000000f8
:1034d40000000000000000000000000000000000e8
:1034e40000000000000000000000000006000000d2
:1034f400060000001fc0000036c000006640000047
:1035040066000000760000003e0000001f800000fe
:103514000780000006c0000006c0000046c000008e
:1035240046c00000668000003f0000000600000066
:103534000600000000000000000000000000000081
:103544000000000000000000000000000000000077
:103554000000000000000000000000000000000067
:10356400000000000000000000000000000c00004b
:10357400001c000008000000261800000063000082
:1035840030000000632000000063000060000000c1
:1035940032c00000001d00009c0000000136000045
:1035a4000003000063000000066300000004000044
:1035b400630000000c6300000018000032000000eb
:1035c400301c0000000000000000000000000000ab
:1035d40000000000000000000000000000000000e7
:1035e40000000000000000000000000000000000d7
:1035f40000000000000000000000000000000000c7
:10360400078000000cc0000018c0000018c00000b3
:1036140018c00000198000001f0000000e00000008
:103624001e7f000036380000731800006198000007
:1036340060d8000060d000006070000030580000c6
:103644001f8e0000000000000000000000000000c9
:103654000000000000000000000000000000000066
:103664000000000000000000303000003030000096
:1036740030300000300000000000000000000000b6
:103684000000000000000000000000000000000036
:10369400000000000000000000000000020c000018
:1036a4000818000030300000306000006060000046
:1036b4006060000060600000606000003030000066
:1036c40030180000180c0000060000000000000084
:1036d40000000000c0600000303000001818000036
:1036e400180c00000c0c00000c0c00000c0c00006a
:1036f4000c0c0000181800001030000020600000be
:103704008000000000000000000000000000000035
:1037140000000000040000000400000044800000d9
:1037240075c000001e0000000e00000075c00000ff
:1037340064c0000004000000040000000000000059
:103744000000000000000000000000000000000075
:103754000000000000000000000000000000000065
:103764000000000000000000000000000000000055
:103774000000000000000000000000000000000045
:103784000000000000000000000000000000000035
:103794000000000000000000000000000000000025
:1037a4000c0000000c0000000c0000000c000000e5
:1037b4007fc000008c0000000c0000000c00000022
:1037c4000c000000000000000000000000000000e9
:1037d40000000000000000000000000000000000e5
:1037e40000000000000000000000000000000000d5
:1037f40000000000000000000000000000000000c5
:10380400000000000000000000000000003800007c
:1038140058180000101000002000000000000000f4
:103824000000000000000000000000000000000094
:10383400000000000000000000000000007e000006
:103844000000000000000000000000000000000074
:103854000000000000000000000000000000000064
:103864000000000000000000000000000000000054
:1038740000000000000000000000000030300000e4
:103884003000000000000000000000000000000004
:1038940000000000000000000060000000c0000004
:1038a40000c00000008000000180000001800000d2
:1038b40001000000030000000300000006000000f7
:1038c40006000000040000000c0000000c000000d2
:1038d400080000001800000018000000100000009c
:1038e40030000000300000006000000060000000b4
:1038f4004000000000000000000000000000000084
:1039040000000000000000000000000000000000b3
:103914000000000000000000000000000f00000094
:10392400138000003180000021c0000060c000004e
:1039340060c0000060c0000060c0000060c0000003
:1039440060c0000060800000308000003100000092
:103954000e00000000000000000000000000000055
:103964000000000000000000000000000000000053
:103974000000000000000000000000000000000043
:103984000000000000000000060000001e0000000f
:1039940066000000060000000600000006000000ab
:1039a40006000000060000000600000006000000fb
:1039b40006000000060000000600000006000000eb
:1039c4003fc00000000000000000000000000000f4
:1039d40000000000000000000000000000000000e3
:1039e40000000000000000000000000000000000d3
:1039f4000000000000000000000000000f000000b4
:103a040011c0000030c0000020c0000000c0000051
:103a14000180000001800000030000000600000097
:103a2400040000000c0000001840000030400000ba
:103a34007fc0000000000000000000000000000043
:103a44000000000000000000000000000000000072
:103a54000000000000000000000000000000000062
:103a64000000000000000000000000001f00000033
:103a7400238000006180000001800000010000003c
:103a8400020000000f0000000180000000c00000e0
:103a940000c0000000c0000000c000004180000021
:103aa4003e000000000000000000000000000000d4
:103ab4000000000000000000000000000000000002
:103ac40000000000000000000000000000000000f2
:103ad40000000000000000000180000003800000de
:103ae40003800000058000000d80000009800000b4
:103af4001980000011800000218000006180000016
:103b04007fe00000018000000180000001800000cf
:103b140007e00000000000000000000000000000ba
:103b24000000000000000000000000000000000091
:103b34000000000000000000000000000000000081
:103b44000000000000000000000000001fc0000092
:103b540030000000300000002000000020000000c1
:103b64003f0000002180000000c0000000c00000f1
:103b740000c0000000c00000008000006180000060
:103b84003e000000000000000000000000000000f3
:103b94000000000000000000000000000000000021
:103ba4000000000000000000000000000000000011
:103bb400000000000000000001800000060000007a
:103bc4000c0000001800000030000000200000007d
:103bd4006f0000007180000060c0000060c0000041
:103be40060c0000060c00000308000003180000030
:103bf4000f000000000000000000000000000000b2
:103c040000000000000000000000000000000000b0
:103c140000000000000000000000000000000000a0
:103c24000000000000000000000000003fc0000091
:103c340040c00000408000000080000001800000bf
:103c44000100000003000000020000000600000064
:103c5400040000000c0000000c000000180000002c
:103c64001000000000000000000000000000000040
:103c74000000000000000000000000000000000040
:103c84000000000000000000000000000000000030
:103c94000000000000000000000000001f00000001
:103ca40031c0000060c0000060c0000070800000ef
:103cb400390000000f80000011c0000020e0000067
:103cc40060600000606000006060000030c00000c0
:103cd4001f000000000000000000000000000000c1
:103ce40000000000000000000000000000000000d0
:103cf40000000000000000000000000000000000c0
:103d04000000000000000000000000000f000000a0
:103d1400318000002180000060c0000060c000000d
:103d240060c0000060c0000031c000001ec0000080
:103d34000080000001800000030000000600000075
:103d44000c00000030000000000000000000000033
:103d5400000000000000000000000000000000005f
:103d6400000000000000000000000000000000004f
:103d740000300000303000000000000000000000af
:103d8400000000003030000030000000000000009f
:103d9400000000000000000000000000000000001f
:103da400000000000000000000300000303000007f
:103db40000000000000000000000000000380000c7
:103dc400581800001010000020000000000000003f
:103dd40000000000000000000000000000000000df
:103de40000000000000000000000000000000000cf
:103df400000000000000000000c0000003c000003c
:103e04001e00000078000000700000001c0000008c
:103e14000780000000c00000000000000000000057
:103e2400000000000000000000000000000000008e
:103e3400000000000000000000000000000000007e
:103e4400000000000000000000000000000000006e
:103e5400000000000000000000000000000000005e
:103e6400000000000000000000000000000000004e
:103e74007fc00000000000000000000000000000ff
:103e84007fc00000000000000000000000000000ef
:103e9400000000000000000000000000000000001e
:103ea400000000000000000000000000000000000e
:103eb40000000000000000000000000000000000fe
:103ec40000000000000000000000000000000000ee
:103ed4000000000000000000600000007800000006
:103ee4000f00000001c0000003c000000e0000002d
:103ef4007800000040000000000000000000000006
:103f040000000000000000000000000000000000ad
:103f1400000000000000000000000000000000009d
:103f2400000000000000000000000000000000008d
:103f34001f000000338000006180000061800000e9
:103f44000180000001800000030000000300000065
:103f5400060000000e0000000c0000000c00000031
:103f64000c000000000000000c0000000c00000029
:103f74000c00000000000000000000000000000031
:103f8400000000000000000000000000000000002d
:103f9400000000000000000000000000000000001d
:103fa400000000000000000000000000000000000d
:103fb4000000000000fc00000003000007000000f7
:103fc4000c0100008018000001c0000010f4000083
:103fd400c03100001ce00000230c000060620000ff
:103fe4000c600000660c0000606600000c600000bd
:103ff400660c0000606600000c400000730c0000ba
:10400400c03300003c80000039c7000000180000e5
:10401400000000000c000000800700000300000006
:1040240001fc00000000000000000000000000008f
:10403400000000000000000000000000000000007c
:10404400000000000000000000000000000000006c
:1040540001000000030000000300000007800000ce
:104064000580000004c000000cc0000008c000006f
:10407400086000001fe00000106000001030000025
:104084003030000020300000f87c00000000000008
:10409400000000000000000000000000000000001c
:1040a400000000000000000000000000000000000c
:1040b40000000000000000000000000000000000fc
:1040c4007f800000b0e0000030600000306000003d
:1040d40030600000308000003fc0000030e000008d
:1040e400307000003030000030300000303000000c
:1040f4003030000030600000ff800000000000004d
:1041040000000000000000000000000000000000ab
:10411400000000000000000000000000000000009b
:10412400000000000000000000000000000000008b
:1041340003e000000c30000010000000300000001c
:10414400200000006000000060000000600000002b
:10415400600000006000000060000000300000000b
:10416400381000001c20000007c000000000000000
:10417400000000000000000000000000000000003b
:10418400000000000000000000000000000000002b
:10419400000000000000000000000000000000001b
:1041a4007f800000b0e0000030700000303000007c
:1041b40030180000301800003018000030180000db
:1041c40030180000301800003010000030300000bb
:1041d4003060000030c00000ff80000000000000dc
:1041e40000000000000000000000000000000000cb
:1041f40000000000000000000000000000000000bb
:1042040000000000000000000000000000000000aa
:10421400ffc00000304000003040000030000000cb
:1042240030000000300000003f800000310000003a
:1042340030000000300000003000000030000000ba
:104244003020000030200000ffe0000000000000eb
:10425400000000000000000000000000000000005a
:10426400000000000000000000000000000000004a
:10427400000000000000000000000000000000003a
:10428400ffc000003040000030400000300000005b
:1042940030000000300000003f80000031000000ca
:1042a400300000003000000030000000300000004a
:1042b4003000000030000000fc000000000000009e
:1042c40000000000000000000000000000000000ea
:1042d40000000000000000000000000000000000da
:1042e40000000000000000000000000000000000ca
:1042f40003e000000c30000010000000300000005b
:104304002000000060000000600000006000000069
:1043140060f80000603000006030000030300000c1
:10432400303000001830000007c00000000000001a
:104334000000000000000000000000000000000079
:104344000000000000000000000000000000000069
:104354000000000000000000000000000000000059
:10436400fc7e0000301800003018000030180000f7
:104374003018000030180000301800003ff800002a
:104384003018000030180000301800003018000009
:104394003018000030180000fc7e0000000000000f
:1043a4000000000000000000000000000000000009
:1043b40000000000000000000000000000000000f9
:1043c40000000000fc3000003030000030300000fd
:1043d4003030000030300000303000003030000059
:1043e400fc000000000000000000000000000000cd
:1043f4000000000000000000000000007e18000023
:1044040018180000181800001818000018180000e8
:1044140018180000181800001818000010200000d8
:10442400c0000000000000000000000000000000c8
:104434000000000000000000000000000000000078
:10444400fcf800003060000030c000003180000043
:104454003300000032000000340000003c00000083
:1044640036000000330000003180000030c000003e
:1044740030e0000030700000fc3c00000000000050
:104484000000000000000000000000000000000028
:104494000000000000000000000000000000000018
:1044a4000000000000000000000000000000000008
:1044b400fc0000003000000030000000300000006c
:1044c4003000000030000000300000003000000028
:1044d4003000000030000000300000003000000018
:1044e4003020000030200000ffe000000000000049
:1044f40000000000000000000000000000000000b8
:1045040000000000000000000000000000000000a7
:104514000000000000000000000000000000000097
:10452400000000000000000000000000780300000c
:10453400c0180000038000001c070000803c00003d
:104544000580000034050000803600000d80000066
:104554003609000080330000198000003311000088
:10456400803100009180000031b1000080300000f3
:10457400a180000030e1000080300000c180000014
:1045840078470000c00000000000000000000000a8
:104594000000000000000000000000000000000017
:1045a4000000000000000000000000000000000007
:1045b40000000000000000000000000000000000f7
:1045c4000000000000000000f03f0000300c00007c
:1045d400380c00003c0c0000360c0000320c0000cb
:1045e400330c0000318c000030cc0000306c000033
:1045f400306c0000303c0000301c0000301c000017
:10460400fc0c00000000000000000000000000009e
:104614000000000000000000000000000000000096
:104624000000000000000000000000000000000086
:10463400000000000000000007c000000860000047
:104644001030000030300000201800006018000016
:104654006018000060180000601800006018000076
:1046640060100000303000003020000018400000ce
:104674000f800000000000000000000000000000a7
:104684000000000000000000000000000000000026
:104694000000000000000000000000000000000016
:1046a40000000000000000007f800000b0e0000077
:1046b4003070000030300000303000003030000036
:1046c4003060000030e000003f8000003000000057
:1046d4003000000030000000300000003000000016
:1046e400fc000000000000000000000000000000ca
:1046f40000000000000000000000000000000000b6
:1047040000000000000000000000000000000000a5
:10471400000000000000000007c000000860000066
:104724001030000030300000201800006018000035
:104734006018000060180000601800006018000095
:1047440060100000303000003020000018600000cd
:104754000780000000c0000000600000001c000092
:104764000000000000000000000000000000000045
:104774000000000000000000000000000000000035
:1047840000000000000000007f800000b0c00000b6
:1047940030600000306000003060000030600000d5
:1047a40031c000003f00000033000000330000006f
:1047b4003180000030c0000030c0000030600000d4
:1047c400fc380000000000000000000000000000b1
:1047d40000000000000000000000000000000000d5
:1047e40000000000000000000000000000000000c5
:1047f40000000000000000001f00000031800000e5
:104804006000000060000000700000007c000000f8
:104814003f0000000f80000003c0000001c0000042
:1048240000c0000040c00000408000006180000023
:104834003e00000000000000000000000000000036
:104844000000000000000000000000000000000064
:104854000000000000000000000000000000000054
:104864000000000000000000fff0000086100000bf
:10487400861000000600000006000000060000008c
:10488400060000000600000006000000060000000c
:1048940006000000060000000600000006000000fc
:1048a4001f80000000000000000000000000000065
:1048b40000000000000000000000000000000000f4
:1048c40000000000000000000000000000000000e4
:1048d4000000000000000000fc3f0000300c00005d
:1048e400300c0000300c0000300c0000300c0000d4
:1048f400300c0000300c0000300c0000300c0000c4
:10490400300c0000300c0000181800000c300000bf
:1049140007e00000000000000000000000000000ac
:104924000000000000000000000000000000000083
:104934000000000000000000000000000000000073
:104944000000000000000000f83e000030080000f5
:10495400301800001818000018100000183000006b
:104964000c2000000c20000006600000064000003f
:104974000640000003c00000038000000380000024
:104984000100000000000000000000000000000022
:104994000000000000000000000000000000000013
:1049a4000000000000000000000000000000000003
:1049b40000000000000000000000000000000000f3
:1049c40000000000f8210000f0300000604000000a
:1049d400306000004030000070c0000030f0000083
:1049e40080180000908000001898000080190000d2
:1049f4009880000019090000800900000d000000e3
:104a04000f0d0000000e0000070000000e0700005c
:104a1400000600000700000004020000000000007f
:104a24000000000000000000000000000000000082
:104a34000000000000000000000000000000000072
:104a44000000000000000000000000000000000062
:104a54000000000000000000000000000000000052
:104a6400fc7c000030300000182000001c600000b6
:104a74000cc00000068000000380000003800000da
:104a84000780000004c000000ce000000860000083
:104a94001830000030180000fc7c0000000000000a
:104aa4000000000000000000000000000000000002
:104ab40000000000000000000000000000000000f2
:104ac40000000000000000000000000000000000e2
:104ad400e07c000030300000182000001860000066
:104ae4000c4000000cc0000007800000078000009c
:104af40003000000030000000300000003000000a6
:104b040003000000030000000fc0000000000000cc
:104b14000000000000000000000000000000000091
:104b24000000000000000000000000000000000081
:104b34000000000000000000000000000000000071
:104b44003fe000002070000040c0000001c00000f1
:104b540001800000030000000300000006000000c4
:104b64000e0000000c0000001800000018000000f7
:104b740030100000703000007fe0000000000000f2
:104b84000000000000000000000000000000000021
:104b94000000000000000000000000007e60000033
:104ba4006060000060600000606000006060000001
:104bb40060600000606000006060000060600000f1
:104bc40060600000606000007e00000000000000e3
:104bd4000000000000000000400000006000000031
:104be4006000000020000000300000001000000001
:104bf4001800000018000000080000000c0000006d
:104c04000c00000004000000060000000200000088
:104c14000300000003000000010000000180000008
:104c2400018000000080000000c00000004000007f
:104c34000060000000000000000000000000000010
:104c440000000000fc0c00000c0c00000c0c000028
:104c54000c0c00000c0c00000c0c00000c0c0000f0
:104c64000c0c00000c0c00000c0c00000c0c0000e0
:104c7400fc00000000000000000000000000000034
:104c84000000000002000000060000000f00000009
:104c94000b0000000b0000001980000011800000d0
:104ca40030c0000020c0000020c0000040600000b0
:104cb40000000000000000000000000000000000f0
:104cc40000000000000000000000000000000000e0
:104cd40000000000000000000000000000000000d0
:104ce40000000000000000000000000000000000c0
:104cf40000000000000000000000000000000000b0
:104d0400000000000000000000000000000000009f
:104d1400000000000000000000000000000000008f
:104d2400000000000000000000000000000000007f
:104d3400000000000000000000000000000000006f
:104d4400000000007fe00000000000000000000000
:104d5400000000000000000000000000000000004f
:104d6400e0600000301000000800000000000000b7
:104d7400000000000000000000000000000000002f
:104d8400000000000000000000000000000000001f
:104d9400000000000000000000000000000000000f
:104da40000000000000000000000000000000000ff
:104db40000000000000000000f000000318000002f
:104dc4006180000001800000038000001f8000005b
:104dd4003180000061800000618000006380000079
:104de4003de00000000000000000000000000000a2
:104df40000000000000000000000000000000000af
:104e0400000000000000000000000000300000006e
:104e1400f00000003000000030000000300000000e
:104e240030000000300000003380000034c0000077
:104e340038e00000306000003060000030600000a6
:104e44003060000030600000304000003880000016
:104e54000f0000000000000000000000000000003f
:104e6400000000000000000000000000000000003e
:104e7400000000000000000000000000000000002e
:104e8400000000000000000000000000000000001e
:104e9400000000000000000007c0000018c000006f
:104ea40030000000200000006000000060000000ee
:104eb4006000000060000000300000003840000086
:104ec4000f8000000000000000000000000000004f
:104ed40000000000000000000000000000000000ce
:104ee40000000000000000000000000000c00000fe
:104ef40003c0000000c0000000c0000000c00000ab
:104f040000c0000000c000000fc0000011c000007d
:104f140030c0000060c0000060c0000060c000003d
:104f240060c0000060c0000030c0000033d000004a
:104f34001ce0000000000000000000000000000071
:104f4400000000000000000000000000000000005d
:104f5400000000000000000000000000000000004d
:104f6400000000000000000000000000000000003d
:104f740000000000000000000780000018c00000ce
:104f840020c0000020c000007fc0000060000000be
:104f940060000000600000003000000038400000a5
:104fa4000f8000000000000000000000000000006e
:104fb40000000000000000000000000000000000ed
:104fc40000000000000600000c1800003030000053
:104fd40030300000fe30000030300000303000007f
:104fe4003030000030300000fc0000000000000001
:104ff40000000000000000000000000000000000ad
:10500400000000000000000000000000000000009c
:10501400000000000000000000000000000000008c
:105024001f30000031e0000060c0000060c00000dc
:1050340060c00000318000001f0000001800000064
:10504400300000003f0000001fe0000033f00000cb
:1050540060300000c0300000c0200000604000004c
:105064003f8000000000000000000000000000007d
:105074000000000030000000f000000030000000dc
:10508400300000003000000030000000300000005c
:1050940031c000003660000038600000306000005d
:1050a40030600000306000003060000030600000bc
:1050b4003060000030600000fdf8000000000000d7
:1050c40000000000000000000000000000000000dc
:1050d40000000000000000000000000000000000cc
:1050e40000300000303000000000000030f000000c
:1050f400303000003030000030300000303000002c
:10510400fc0000000000000000000000000000009f
:1051140000000000000000000030000030300000fb
:105124000000000030f0000030300000303000009b
:1051340030300000303000003030000030200000fb
:10514400204000008000000000000000000000007b
:105154000000000030000000f000000030000000fb
:10516400300000003000000030000000300000007b
:1051740031f00000308000003100000036000000f3
:105184003c00000036000000360000003300000040
:105194003180000030c00000f87000000000000002
:1051a40000000000000000000000000000000000fb
:1051b40000000000000000000000000000300000bb
:1051c400f03000003030000030300000303000009b
:1051d400303000003030000030300000303000004b
:1051e400fc000000000000000000000000000000bf
:1051f40000000000000000000000000000000000ab
:10520400000000000000000000000000000000009a
:10521400000000000000000000000000000000008a
:1052240000000000000000000000000071c3000046
:1052340080b600006cc0000038700000c030000070
:1052440060c0000030600000c030000060c000009a
:1052540030600000c030000060c00000306000001a
:10526400c030000060c00000fdfb0000f000000042
:10527400000000000000000000000000000000002a
:10528400000000000000000000000000000000001a
:10529400000000000000000000000000000000000a
:1052a40000000000000000000000000000000000fa
:1052b40000000000000000000000000000000000ea
:1052c40071c00000b660000038600000306000006b
:1052d400306000003060000030600000306000008a
:1052e4003060000030600000fdf8000000000000a5
:1052f40000000000000000000000000000000000aa
:105304000000000000000000000000000000000099
:105314000000000000000000000000000000000089
:105324000000000000000000000000000000000079
:105334000f00000011c0000020c0000060600000e9
:105344006060000060600000606000006060000059
:1053540030400000388000000f0000000000000012
:105364000000000000000000000000000000000039
:105374000000000000000000000000000000000029
:105384000000000000000000000000000000000019
:105394000000000000000000000000000000000009
:1053a40071c00000b66000003870000030300000aa
:1053b4003030000030300000303000003020000079
:1053c400302000003840000037800000300000002a
:1053d4003000000030000000300000003000000009
:1053e400fc000000000000000000000000000000bd
:1053f40000000000000000000000000000000000a9
:105404000000000000000000000000000000000098
:105414000f40000011c0000030c0000060c0000058
:1054240060c0000060c0000060c0000060c00000f8
:1054340030c0000031c000001ec0000000c00000e9
:1054440000c0000000c0000000c0000000c0000058
:1054540003f0000000000000000000000000000055
:105464000000000000000000000000000000000038
:105474000000000000000000000000000000000028
:1054840033800000f78000003880000038000000fe
:105494003000000030000000300000003000000048
:1054a4003000000030000000fc000000000000009c
:1054b40000000000000000000000000000000000e8
:1054c40000000000000000000000000000000000d8
:1054d40000000000000000000000000000000000c8
:1054e40000000000000000000000000000000000b8
:1054f4003e00000066000000600000007000000034
:105504003c0000001e000000070000000300000033
:1055140043000000420000007c0000000000000086
:105524000000000000000000000000000000000077
:105534000000000000000000000000000000000067
:105544000000000010300000303000007fb0000088
:1055540030300000303000003030000030310000c6
:105564001e00000000000000000000000000000019
:105574000000000000000000000000000000000027
:105584000000000000000000000000000000000017
:10559400000000000000000030600000f1e00000a6
:1055a40030600000306000003060000030600000b7
:1055b40030600000306000003060000031e800001e
:1055c4001e70000000000000000000000000000049
:1055d40000000000000000000000000000000000c7
:1055e40000000000000000000000000000000000b7
:1055f40000000000000000000000000000000000a7
:105604000000000000000000f8f00000304000003e
:105614003040000030800000188000001980000035
:10562400090000000d0000000f000000060000004b
:105634000600000000000000000000000000000060
:105644000000000000000000000000000000000056
:105654000000000000000000000000000000000046
:105664000000000000000000000000000000000036
:105674000000000000000000000000000000000026
:10568400000000000000000000000000f887000097
:1056940080200000c200000030c200000031000081
:1056a40042000000116600000011000064000000c8
:1056b4001a340000001a0000340000000a38000008
:1056c400000c0000180000000c180000000000008e
:1056d40000000000000000000000000000000000c6
:1056e40000000000000000000000000000000000b6
:1056f40000000000000000000000000000000000a6
:105704000000000000000000000000000000000095
:105714000000000000000000000000000000000085
:10572400f9f0000030c00000188000000d000000f7
:105734000e000000060000000f00000019800000a9
:1057440010c0000020e00000f9f00000000000009c
:105754000000000000000000000000000000000045
:105764000000000000000000000000000000000035
:105774000000000000000000000000000000000025
:105784000000000000000000000000000000000015
:10579400f8f000003040000030400000308000008d
:1057a4001880000018800000090000000d000000af
:1057b4000f000000060000000600000006000000c4
:1057c400040000000c00000008000000f0000000cd
:1057d400e0000000000000000000000000000000e5
:1057e40000000000000000000000000000000000b5
:1057f40000000000000000000000000000000000a5
:105804003fc000004180000043000000030000008e
:10581400060000000c0000000c000000180000004e
:1058240030400000304000007fc000000000000055
:105834000000000000000000000000000000000064
:105844000000000000000000000000000102000051
:10585400040c00000c0c00000c0c00000c0c0000ec
:10586400183000005c0c00000c0c00000c0c000054
:105874000c0c00000c0600000100000000000000f9
:1058840000300000303000003030000030300000c4
:105894003030000030300000303000003030000084
:1058a4003030000030300000303000003030000074
:1058b40030300000000000000000000080600000a4
:1058c4003030000030300000303000003030000054
:1058d400381e000018300000303000003030000066
:1058e4003030000020400000800000000000000074
:1058f40000000000000000000000000000000000a4
:105904000000000000000000000000000000000093
:105914000000000000000000000000001c20000047
:105924003e20000047c0000043800000000000004b
:105934000000000000000000000000000000000063
:105944000000000000000000000000000000000053
:105954000000000000000000000000000000000043
:10596400000000000000000000780000404000003b
:105974004040000040400000404000004040000023
:10598400404000004040000078000000000000009b
:10599400000000000000000000000000d2ac000085
:1059a40000000000200000007f0000000013000041
:1059b4000004000088010000000400009b010000b6
:1059c40000070000ae01000000080000c101000053
:1059d40000080000d4010000000b0000e7010000f3
:1059e400000b00000d020000000400003302000060
:1059f40000050000460200000005000059020000f6
:105a0400000700006c020000000700007f02000095
:105a1400000400009202000000050000a50200003e
:105a240000040000b802000000080000cb020000df
:105a340000080000de02000000080000f10200007f
:105a44000007000004030000000800001703000022
:105a5400000800002a030000000800003d030000c5
:105a64000008000050030000000800006303000069
:105a7400000700007603000000080000890300000e
:105a8400000400009c03000000040000af030000b9
:105a940000070000c203000000070000d503000057
