:020000040000FA
:0600000092EF13F0120064
:020006001200E6
:06000800CBEF03F0120033
:02000E001200DE
:080010004D45544552303119F1
:06001800CBEF03F0120023
:02001E000400DC
:100020007A270000BC0600000200000078270000CC
:10003000BA060000020000006E2700005300000016
:100040000A00000010000000A006000008000000E8
:10005000C0EC04F084E941E8F250100B01E0010E1D
:10006000046EF2988B90060101EBA8F602EBA9F65C
:10007000030ED890A933A833E804FBE17F0E0601F4
:10008000A8158009E66E19EC05F0060101EBA8F64B
:1000900002EBA9F6050ED890A837A937E804FBE1D2
:1000A000E00E0601A8151009E66ECAEC04F0045033
:1000B000E8B0F288E8A0F29842E9E7CFD9FF120051
:1000C000C0EC04F083E941E8F250100B01E0010EAE
:1000D000036EF2988B9001EBE6FFCAEC04F003503C
:1000E000E8B0F288E8A0F29842E9E7CFD9FF120021
:1000F000C0EC04F082E942E8F250100B01E0010E7E
:10010000036EF2988B9000EBE6FF19EC05F06DECB6
:1001100013F0026E8B800350E8B0F288E8A0F298EA
:100120000250EEEF04F0C0EC04F083E942E8F25034
:10013000100B01E0010E046EF2988B90060100EBAB
:10014000A8F601EBA9F6030ED890A933A833E8046A
:10015000FBE17F0E0601A817000EA917800EA8115B
:10016000E66E19EC05F0060100EBA8F601EBA9F626
:10017000050ED890A837A937E804FBE1E00E060188
:10018000A815E66E19EC05F06DEC13F0036E8B808C
:100190000450E8B0F288E8A0F2980350EEEF04F0C3
:1001A000C0EC04F081E943E88B94026A036A2C0EE8
:1001B000025C010E035804E2022A000E0322F7D764
:1001C0008B84026A036A2C0E025C010E035804E25F
:1001D000022A000E0322F7D7070EE66E550EC5DB86
:1001E000540E00EC05F0016E070E0114F9E1026AED
:1001F000036AE80E025C030E035804E2022A000EB2
:100200000322F7D7010EE66E1B0EAFDBE668070E82
:10021000ACDBE668090EA9DBE668030EA6DBE66840
:10022000050EA3DB016A080E015C08E20150B8DB91
:100230000150E8240B0F99DB012AF5D7EADB800E89
:10024000E66E020EE66EE66E03DF43E9E66A030E33
:1002500022EC05F0900EE66E060E22EC05F0800E04
:10026000E66E070E22EC05F0100EE66E080EEADBD5
:10027000010EE66E200EE6DB800EE66E750E75DB77
:10028000400EE66E7D0E71DB600EE66E7F0E6DDB5E
:10029000980EE66E310E69DB950EE66E5D0E65DB3F
:1002A0000F0EE66E020EE66E3EDF42E9016EA00E14
:1002B0000114A008F5E1E60EE66E650E56DBA9DB3B
:1002C000E66A3BC0E6FFD0D942E944E9E7CFD9FF6F
:1002D000120056DB81E942E881A0F282000148A1C8
:1002E0000ED00601800EBA5D000EBB5905E3BA6B55
:1002F000BB6B0001489103D0BA2B000EBB23000159
:1003000048AB9FD0010E026E040101AD026A0001EC
:10031000186B206BCC0E04010215016E0150080A07
:1003200001E177D0840A75E0040A4DE0080A3BE059
:100330004C0A1CE0040A6DE1FF0E065D05E1FF0EAC
:10034000075D02E1000118850001188F025007E0E7
:1003500030DB130E1ADB100E1B6F040E4FD02FDB99
:10036000150E13DB120E1B6F040E48D00001188F00
:1003700002500BE062DB0E0E196F040E1A6F190E9D
:1003800004DB160E1B6F040E39D00EC421F00FC40F
:1003900022F0100E196F040E1A6F1B0EF6DA180EEB
:1003A0001B6F040E2BD000011885188F010E206FD3
:1003B00044DB060E196F040E1A6F0B0EE6DA080EF8
:1003C0001B6F040E1BD0FF0E065D05E1FF0E075DDF
:1003D00002E1000118850001188F010E206F025004
:1003E00007E1EDDA0F0ED1DA0C0E1B6F040E06D00A
:1003F000E0DA0D0ECADA0A0E1B6F040E1C6F040140
:1004000001B707D0070E01150EE0030A08E0020A43
:1004100003E019D8000E16D00001189102D0000197
:100420001881189303D00001188118830401000576
:10043000CFDAEFCF1FF00051CBDAEFCF1EF0010E75
:1004400001D0000ECBD20001489B120099DA8BE953
:1004500046E80C6A0D6A82DA040B02E0010E066EB1
:100460007DDA080B01E0076A000148A104D081B0E1
:10047000FBD7F282F9D772DA030B0601A86FA96BDA
:10048000010EA81904E1A95102E1030E08D066DAB1
:10049000030BA86FA96BA851A91102E1010E0D6E03
:1004A00000013C5108180DE13D5109180AE13C1DBD
:1004B00001E13D1D06E0050E0B6E0D8C010E0E6E6A
:1004C00003D0070E0B6E0E6A065002E0020E01D03A
:1004D000080E0B26075002E0020E01D0080E0B2674
:1004E0003DDA200B04E03ADA040B01E10D8A36DA3A
:1004F00079DA09E1A95107E10D6A070E0B6E0E6A60
:10050000010E076E039A0BEBE6FF20DA0B50002476
:10051000E66E1CDA0DEBE6FF19DA20DA63DA05E1A4
:10052000A95103E1800E7EDA2DD0065004E0075079
:1005300002E0880E0DD0065004E0075002E1C80E1C
:1005400007D0065004E1070402E18C0E01D0CC0E66
:1005500069DAFCD908EBE6FFF9D909EBE6FFF6D931
:10056000FDD9040B04E0E668F1D9E6680BD006502B
:100570000BE004EBE9FF05EBEAFFEFCFE6FFE6D97E
:10058000042837DAE3D90AD00D6A080E0D5C06E2BA
:100590000D5004242EDADAD90D2AF7D70E5006E1D1
:1005A0003CC0E6FFD3D93DC0E6FFD0D9075007E0F5
:1005B0003EC0E6FFCBD93FC0E6FFC8D909D00D6ADF
:1005C000080E0D5C05E20D50EBD9C0D90D2AF8D705
:1005D0000D6A00500D5C0BE20D500124E96E000E17
:1005E0000220EA6EEFCFE6FFB1D90D2AF2D7000163
:1005F0004881B4D9200B07E0B1D9040B04E1050E02
:100600000D6E488303D0010E0D6E48930DEBE6FF8F
:10061000370EABD90F6A106A81A0F282000148B18F
:1006200004D048A51CD0489518D00F2A000E1022DF
:100630000FEBA8F610EBA9F60601A851FE08FF0E75
:10064000A955EAE2ADDD3C0EE66E000EE66E3E0E0A
:10065000E66E000EE66E5FD844E9000E01D0010E92
:1006600047E9E7CFD9FF12008BD983E90B0E015C74
:1006700003E301501A0802E2000E12D001EB3BF036
:100680000B0E015C100DF3500309E66EE66A72D999
:10069000040EE66E6D0E69D9E66A6D0E66D9010E1E
:1006A000B4D16ED982E942E80A0EE66E00EBE6FFAD
:1006B0008CEC0FF041E9E750036E0A0EE66E00EB9A
:1006C000E6FF89EC0FF041E9E750400DF350026E70
:1006D0000350050802E2380E17D00350040802E266
:1006E000300E12D00350030802E2280E0DD0035042
:1006F000020802E2200E08D00350010802E2180EA0
:1007000003D0035002E0100E022602EBE6FF030EB8
:1007100099D9010E63D134D985E902EBE9FF03EBE6
:10072000EAFFEFCF3EF00228E96E000E0320EA6EEA
:10073000EFCF3FF000EBE9FF01EBEAFFEFCF3CF03A
:100740000028E96E000E0120EA6EEFCF3DF03EC0BA
:10075000E6FF070E0AD93FC0E6FF090E06D93CC0E6
:10076000E6FF030E02D93DC0E6FF050EFED8010EDE
:100770004CD106D984E900EB37F001EB38F002EBFD
:1007800039F0D6CF3AF000010B0E3B6F09DD0001C6
:10079000486B010E3AD1D8CFE4FFE0CFE4FFE46E1E
:1007A000DACFE4FFE2CFDAFFE9CFE4FFEACFE4FFFC
:1007B000B4C6E4FFB5C6E4FFB6C6E4FFB7C6E4FFBF
:1007C000F6CFE4FFF7CFE4FFF5CFE4FFF3CFE4FF8C
:1007D000F4CFE4FFFACFE4FF06EEA8F0070EE8043A
:1007E00003E3EECFE4FFFBD7E652CAD881E945E840
:1007F000F250100B6DE0F250020B6AE0F292620EC2
:10080000FFD8036EABD8010B17E000014891060139
:10081000BA6BBB6B000148A30FD0480EF1D8056E30
:10082000D950050FE96EDACFEAFFEF50010B02E075
:10083000000148850001489391D8080B42E000016F
:1008400048BB3BD0040EE66E730E8FD8E66A030EEB
:10085000E66E69DC42E9020F0401006F00510001FD
:100860005D6F5E6B4B0E5D5D000E5E591FE2000119
:10087000488B010E016E020E04010025D880015440
:1008800015E3015000015E6B000F5D6F030E5E23E8
:100890005DC0E6FF5EC0E6FF46DC42E9E66E015061
:1008A00097D8E552E750EF6E012AE5D7010EE66EC4
:1008B0001B0E5BD8E66A730E03D0010EE66E1B0EAC
:1008C00054D84CD8100B04E0800EE66E590E4DD86B
:1008D000F2A409D0F2AA07D0F2940601B82BB851BD
:1008E00002E10601B92BF250080B04E0F250010BB3
:1008F00001E0F29046E9E7CFD9FFE55206EEAEF00F
:10090000070EE80403E3E5CFEDFFFBD7E5CFFAFFE1
:10091000E5CFF4FFE5CFF3FFE5CFF5FFE5CFF7FF38
:10092000E5CFF6FFE5CFB7F6E5CFB6F6E5CFB5F6FE
:10093000E5CFB4F6E5CFEAFFE5CFE9FFE5CFDAFF93
:10094000E550E5CFE0FFE5CFD8FF10000C500C2AB2
:10095000E66EE66A28EC00F043E91200D950030F76
:10096000E96EDACFEAFFEF501200E66E60EC00F0BD
:1009700042E91200020EE66E28EC00F043E9120094
:10098000D9CFE6FFE1CFD9FF12000401005D0001DD
:100990001D6F12004ED800EBE6FF4BD88B80120083
:1009A0000001EA6A3825E96E3951EA22EFCFE6FF05
:1009B000120043D8080E196F040E1A6F120008C4F3
:1009C00021F009C422F00A0E196F040E1A6F1200EA
:1009D000EA6A000FE96E040EEA22120043E9E7CF4B
:1009E000D9FF1200030B0601A86FA96B030EA8190B
:1009F0001200E96E000E0520EA6EEFCFE6FF12004E
:100A0000E66E78EC00F041E9120041E9E7CFD9FF4A
:100A10001200030EE66EE66AADDF020EE66E010E10
:100A200022EF05F0E66E92DF00013A513A2BE66EB6
:100A3000120059EC13F041E9120004C421F005C47E
:0A0A400022F01200E66EBAEF04F097
:060A4A00DEDB81E942E859
:100A500069EC01F0000901E1FDD000010C6B1851B7
:100A60000C91040B01E00C8118510C95080B01E06E
:100A70000C851851030B0601A86FA96B010EA8196C
:100A800004E1A95102E1010E01D0000E00010C9910
:100A9000E8B00C8918510C9B800B01E00C8B18AF4F
:100AA00004D019C00FF01AC010F021C00DF022C000
:100AB0000EF01DC013F01BC011F01CC012F01FC0BF
:100AC00015F01EC014F00CA9B8D011C0E9FF12C077
:100AD000EAFFEF50920A01E197D0030A01E186D0C4
:100AE000130A4FE0030A02E01785A8D0026A010E3C
:100AF000A1DB00015B5D01E09DD000010D1D01E166
:100B00000E1D0BE000510D1902E101510E1905E017
:100B10001351020802E2F20E01D0AEDA026E030EA9
:100B200000015C5D01E186D0020E5C5D04E1020E15
:100B3000025C01E07FD05C0506E1020404E0020EE5
:100B4000025C01E077D0ADEC09F0910EEF6E4ADB6C
:100B500002EBEFFF025002E002040BE143DB0BC0AB
:100B6000EFFF016A070E5CDB04E20150B5DB012AEE
:100B7000F9D723EC02F000010C51040B28E0010E20
:100B800026D0026B2FDB920EEF6E016A0A0E48DB55
:100B90000DE201509EDB08E0ABDB06E00150ACDB70
:100BA000000120DBEF6A02D0012AF0D723EC02F02B
:100BB0000A0EACDB011806E1F45004E1000112DB7F
:100BC000F00EEF6E00010C51040B01E0010EE66E19
:100BD000010EE66E0FC0E6FF10C0E6FF0DC0E6FF97
:100BE0000EC0E6FFE66A7ED847E928D0010E22DB78
:100BF000020A06E0020A02E0010A1CE13DDA1AD00C
:100C000017A918D0179916D0010E14DB0601A86F8A
:100C1000A96BA851A9110EE1016A0A0E01DB0AE2D3
:100C2000015057DB05E064DB03E0015065DB02D0D7
:100C3000012AF3D723EC02F001D0178500011351EC
:100C400006E01751080B03E11751100B03E017954D
:100C500023EC02F043E9E7CFD9FF1200D5DA81E9AE
:100C600046E8530E036E000E046E02820294029652
:100C70000298028A029002EBE6FF03EBE6FF04EB28
:100C8000E6FFB9EC03F043E9056806680001340E9D
:100C9000006F120E016F000EE66E000EE66ED95068
:100CA000050FE66EDACFE6FF8BEC03F044E90001B6
:100CB000176B016A0A0EB4DA04E201501DDB012A47
:100CC000F9D728EC13F00001026B0B6B0B810001CC
:100CD0005C39F00B00010B13F288010E47E9E7CFF6
:100CE000D9FF120091DA88E948E8086A015002E069
:100CF000010E01D0000E0601A86FD950080FE96E51
:100D0000DACFEAFFA851030BF36EFC0EEF14F310D9
:100D1000EF6E065002E0000E01D0010E089AE8B016
:100D2000088A06500894E8B0088400500896E8B095
:100D300008860C6A065002E0010E01D0000E0B6E10
:100D4000065002E0000E01D0010E089CE8B0088CAD
:100D5000088E82EB09F083EB0AF084EB0DF085EB53
:100D60000EF002C0E6FF000EE66E010EE66ED950F0
:100D7000080FE96EDACFEAFFA0DA9FDAEECFE6FFDE
:100D800026EC02F04AE90F6E0001026B0F5049E9B0
:100D9000E7CFD9FF1200DEDA00EBE6FFE66A73DA8E
:100DA0007ED232DA83E9015094DA09E000EBE6FF03
:100DB000010EE66E0150D5DA04D844E901D0000EE8
:100DC0006ED222DA85E900EBE6FFE66A02EBE6FF87
:100DD00003EBE6FF3EDA63D217DA85E941E8056AFC
:100DE000080E94DA055C000EF45416E20550022455
:100DF000E96E000E0320EA6EEFCFA8F6055000243E
:100E0000E96E000E0120EA6EEF500601A85D02E0D7
:100E1000000E03D0052AE4D7010E42E9E7CFD9FF3F
:100E20001200F2D987E90550020A06E0030A04E03D
:100E3000010A04E1010E03D0000E01D0000E2FD2F2
:100E4000E3D983E944E800015C51036E0A0E046EA5
:100E5000020E056E010E5ADA001802E1F45049E064
:100E600032EC13F0B4C607F0B5C608F0B6C609F008
:100E7000B7C60AF0240E00010727F40E0823000E5F
:100E800009230A2300015C6B00011787000117A7E3
:100E90005AD032EC13F0B4C603F0B5C604F0B6C6AF
:100EA00005F0B7C606F0070EE96E000EEA6EEE50CA
:100EB0000001035D0601A86FEE5000010459060110
:100EC000A96FEE50000105590601AA6FEE5000010E
:100ED00006590601AB6FD880240EA855F40EA9550B
:100EE000000EAA55000EAB552CE204500406000972
:100EF00002E1FF0E2BD003C007F004C008F005C0CC
:100F000009F006C00AF0055005060008BFE3020E0E
:100F1000056E23DA810EEF6E65D95BC0EFFF62D9F3
:100F20000BC0EFFF066A070EF1D9065C000EF45401
:100F300004E20650D1D9062AF6D7E66A010EE66E1B
:100F4000A2D983DDA3D703EB5CF0165145E9E7CFC7
:100F5000D9FF12000001179523EF02F0FBD9E66AD2
:100F600000EBE6FF34EC03F042E9000904E000EB9B
:100F70005BF0010E01D0000E92D167DD0001175128
:100F8000040B01E0010E1200E5D942E80A0EBED9B9
:100F9000005C000EF45434E2280EE66E220E45D9B1
:100FA000005097D965E000EBE6FFB4D9026A080E5D
:100FB000025C11E2080E55D908E2BFD90601B2D988
:100FC000EF5003E0BAD925D904D0180EE66E220EF0
:100FD0002CD9022AECD70B0EE66E220E26D9026A15
:100FE000070E3FD908E20050F3D861D9025006013C
:100FF00010D9022AF5D7080EE66E220E16D938D07F
:10100000280EE66E220E11D9026A0A0E2AD930E2A3
:1010100002505FD92BE002EBE6FF7CD9036A080E91
:10102000035C10E2080E50D907E20250D1D83BD938
:1010300003540601EED804D0180EE66E220EF5D841
:10104000032AEDD70B0EE66E220EEFD8036A070EC9
:101050003BD908E20250BCD82AD903500601D9D89E
:10106000032AF5D7080EE66E220EDFD8022ACDD766
:1010700043E9E7CFD9FF1200C7D881E943E8026A04
:101080000368016A0A0ECCD811E2015022D907E0A8
:101090002FD90AE081EB03F0010E026E07D0FF0E9C
:1010A000035C02E181EB03F0012AECD7FF0E035C45
:1010B00002E1F10E45D000015C510601A86FA96B59
:1010C000A8510108000EA9553AE3016A080E015C17
:1010D0000DE201500001EA6A0F25E96E1051EA2283
:1010E000EF50E66E035074D8C4D8F0D7035070D8D0
:1010F0001FD9EF8E020E00019DD8010B0601A86FCB
:10110000035066D815D9A851010BF36EFE0EEF14EB
:10111000F310EF6E016A070E83D80DE2030E01246F
:10112000000188D8E66E035053D8090EE926000E58
:10113000EA229FD8F0D703EB16F000011797025070
:1011400044E9E7CFD9FF120005D945E8FF0E005C5E
:1011500019E1026A0A0E85D828E20250BAD80EE0D8
:10116000CED80250EFD8036A046AFF0E035C0F0E5C
:10117000045804E2032A000E0422F7D70250BCD818
:10118000022AE8D70050A5D810E0B9D80050DAD824
:10119000056A066AFF0E055C0F0E065804E2052A72
:1011A000000E0622F7D70050A7D846E9E7CFD9FFAF
:1011B0001200D0D8005003080AE300EB5CF00001F5
:1011C0005C51100D0F0E00010B15F3100B6F67D063
:1011D000100DF3CFE9FFF4CFEAFF000EE926060E6B
:1011E000EA2212000251022BEA6A000FE96E010E98
:1011F000EA221200AAD8E9CFE6FFEACFE6FF120002
:1012000097D8EF50800B1200D9CFE6FFE1CFD9FF7E
:10121000120088D8EFCFE6FFDFEC11F041E91200B1
:1012200075D8015C000EF4541200E66EC4EC11F0A7
:1012300042E91200EA6A1125E96E1251EA22EF50E2
:1012400012000FC0E6FF10C0E6FFC6DD44E900094A
:10125000120000C0E6FF01C0E6FFE66A43DD47E991
:10126000120054D8025C000EF454120061D8EF6AE8
:101270001200EACFA9F60150060154D8E552E75012
:10128000EF6E012A1200000EE66EE66A00C0E6FF6D
:1012900001C0E6FF010EE66E25DD47E9120041E9D7
:1012A000E7CFD9FF120051D8070ED8801200090EDF
:1012B000E926000EEA22A5EF09F0EECFE6FFEECF19
:1012C000E6FFEECFE6FF120021D8035C000EF454D7
:1012D00012007EDF00EF09F0EA6AA00FE96E060E49
:1012E000EA22EF50E66E7EDFE552E750EF6E120025
:1012F000015037D821EF09F06BDF36EF09F02DD818
:10130000920EEF6EE66A010EE66E1200F36EF46A5C
:10131000F3501200EEEC11F041E91A0EE66E220EC7
:1013200015EF09F0EA6AE924E96EA951EA221200F0
:10133000080EE926000EEA221200005049DFB3DF52
:10134000025412000ED829EF09F0E9CFA8F6EACF2F
:10135000A9F6120059DF82E912000001026BF2EFD8
:0813600008F036DFFAEF08F097
:0813680090DB86E9015001064B
:1013700000090CE002EBE6FF03EBE6FF00EBE6FF03
:1013800069DBF4E1A91DF2E1010E01D0000E41E993
:10139000E5CFDAFFE7CFD9FF120077DB89E97BE8F9
:1013A0000A6A0B6A02EBF6FF03EBF7FF04EBF8FFA8
:1013B0000800F550096E095001E12DD3250E095C96
:1013C00001E01BD30C6A0D6A0E6A0F6A106A2DDBEE
:1013D0002D0E095C0CE02B0E095C09E0200E095C67
:1013E00006E0230E095C03E0300E095C15E10950AC
:1013F000300A10E0130A0CE0030A08E00B0A04E0CC
:10140000060AE5E10C80E3D70C82E1D70C84DFD734
:101410000C86DDD70C88DBD72A0E095C13E1A5DB2F
:101420000DE30C801CEBA8F61DEBA9F60601A86DD8
:10143000A91F000EA923A8510D6E02D09CEB0DF040
:10144000F4DA07D0126A3FDB02E06BDBFCD792EBE9
:101450000DF00CB00C982E0E095C15E1E6DA2A0EA0
:10146000095C08E182DB04E29CEB0EF0010E0F6EDA
:10147000DCDA09D0126A27DB02E053DBFCD792EBFF
:101480000EF0010E0F6E680E095C07E1CEDA680EF1
:10149000095C1DE1030E106E19D0740E095C16E094
:1014A0007A0E095C13E0480E095C06E0540E095CF4
:1014B00003E05A0E095C02E1020E07D06C0E095CD3
:1014C00003E06A0E095C03E1010E106EAEDA09500A
:1014D0006E0A01E16ED21E0A01E128D1200A01E163
:1014E00025D13F0A01E1FDD01A0A01E1FAD00D0A27
:1014F00001E1F7D0200A01E1F4D03A0A01E1F1D08C
:10150000200A01E1EED0260A01E1EAD00D0A01E14C
:10151000E7D01A0A01E19ED0200A3BE0300A1AE027
:10152000460A0EE0250A01E072D2D950020FE96E98
:10153000000EDA20EA6E010EEE5E000EEE5AEE5A52
:101540000FDB250EE66E86DA03E1A91D01E159D213
:101550000A2A5BD2116A0D50010803E20D04116ED4
:10156000F5DA115007E0010E0C1404E16DDA01E028
:1015700048D2116AD3DAEF50096ECBDA03E1A91D24
:1015800001E13FD20A2A000E0B225EDA01E13FD2CE
:1015900038D2020E105C08E1030E4EDAEE50176EE0
:1015A000EE50186EEF5007D0E7DAAA6BA851176E0D
:1015B000A951186EAA51196E17EBE6FF18EBE6FF5A
:1015C00019EBE6FFD0EC12F043E9B4C6A8F6B5C6B5
:1015D000A9F6B6C6AAF60601A8511C6EA9511D6E41
:1015E0000F5006E01C500E5C03E20E501C6E1D6A8C
:1015F0001C500D5C02E29CEB0DF050DA05E00D5042
:101600000E5C02E28EEB0DF00CB004D01DDA01E0AE
:10161000F8D1116A126A17EBF6FF18EBF7FF19EB16
:10162000F8FF0800F550096E095010E00D50125CEB
:101630000DE26FDA03E1A91D01E1E3D10A2A000EF0
:101640000B22122AD950170F55DAEBD7FDD901E139
:10165000DED1D7D163DAEE501A6EED501B6E1AEB65
:10166000E6FF1BEBE6FFC2EC12F042E9F3501C6E02
:10167000F4501D6E0F5006E01C500E5C03E20E503D
:101680001C6E1D6A1C500D5C02E29CEB0DF006DA2C
:1016900005E00D500E5C02E28EEB0DF00CB004D0B4
:1016A000D3D901E0AED1116A126A1AEBE9FF1BEB44
:1016B000EAFFEF50096E09500FE00D50125C0CE28A
:1016C00028DA03E1A91D01E19CD10A2A000E0B22B0
:1016D000122A1A2A1B22E9D7B7D901E198D191D150
:1016E0000C8E10040AE1040EA7D9EE50136EEE50D2
:1016F000146EEE50156EEF5032D0030E105C16E1F2
:101700000CAE0CD00BDAEFCFA8F60601A96BAA6BD2
:10171000AB6BA8AF23D0A969AA691FD0FFD9EFCFBF
:10172000A8F60601A851136E146A20D0020E105CB0
:101730000CE10CAE06D0030E7FD9B6D9AAAF0ED0FD
:101740000CD0030E79D9B0D909D00CAE0AD014DA76
:10175000AA6BAB6BA9AF02D0AA69AB69BCD9166EF4
:1017600007D00ADAA851136EA951146E156A166AC9
:101770000F5002E1010E0E6E1E6A1F6AD950400F13
:10178000E66E000EDA20E66EE552E550436EE75055
:10179000426E416A116A0A0E106E0950780A12E010
:1017A000200A10E0280A0CE0200A0AE03F0A06E0BE
:1017B0000D0A02E0200A08E1020E05D0080E03D04F
:1017C000080E0926100E106E0CBE02D00C920C945E
:1017D000800E0C1417E0163415E3E668E668E66838
:1017E000E66842D931EC10F0E552E5CFABF6E5CF33
:1017F000AAF6E5CFA9F6E7CFA8F606016CD9166ED2
:101800002D0E07D00CA202D02B0E03D00CA404D0B6
:10181000200E206E1E2A01D0206A0E5005E11350C2
:1018200014101510161061E006013E0EA86F270E69
:10183000A96F000EAA6F83D9EEEC0FF0E552E5CF49
:10184000AEF6E5CFADF6E5CFACF6E7CFABF60601E9
:10185000A851AB25F36EA951AC21F46EAA51AD216C
:10186000F86EF4CFF7FFF3CFF6FF0800F550126ED5
:10187000580E095C05E1610E125C02E3200E125E57
:101880005ED9EBEC0FF0E552E550166EE550156EA3
:10189000E550146EE750136E42EBE9FF43EBEAFFAD
:1018A0004206000E435A12EBEFFF1E2A135014108B
:1018B00015101610B9E10CA619D06F0E095C06E1DF
:1018C0000E501E5C13E31E280E6E10D0780E095CBD
:1018D00009E0580E095C06E0620E095C03E0420E66
:1018E000095C04E1020E1F6E01D01E6A100E0C147A
:1018F00007E00D500E5C04E20F5002E18DEB0EF09C
:101900000E501E5C03E21E500E5E01D00E6A0E5099
:101910001E241F24D8800D5407E20E500D5CD88081
:101920001E54D8801F54116E010E0C1406E1115084
:1019300004E08AD866E10AD9116A205007E010D97C
:1019400020EBE6FF87D802E1A91D5BE01F500BE00A
:1019500007D9300EE66E7ED802E1A91D52E0D9D833
:1019600002E1A91D4EE00E501F5C02E21F500E5E08
:10197000300EE66E0EEBE6FFDCD843E1422A000EA5
:10198000432242EBE9FF43EBEAFFEF50126E1250A5
:1019900008E0E6D812EBE6FF5DD8F0E1A91DEEE124
:1019A00030D052D82EE10E501E2411241F240A26B6
:1019B0002CD01050030A1CE0010A14E0030A07E0CF
:1019C000ADD8C9D80AEBEEFF0BEBEDFF20D08BD8DA
:1019D000AB6BA9AF02D0AA69AB69A0D84ED8ABC691
:1019E000EEFF15D080D8A9BFAA6998D846D80FD0E5
:1019F00095D8B1D80AEBEFFF0AD08BD805E1A91D25
:101A000003E1F368F4680BD00A2A000E0B22D950C8
:101A1000020F70D8CDD40AEBF3FF0BEBF4FF7CE997
:101A2000E5CFDAFFE7CFD9FF1200D950020F62D815
:101A30000800F550096E1200005E000E015A00EB1E
:101A4000E9FF01EBEAFF1200200EE66E11EBE6FF64
:101A500099EF0DF0F5EC12F043E9F3CFA8F6F4CFCF
:101A6000A9F60601F31C120013EBE6FF14EBE6FFE8
:101A700015EBE6FF16EBE6FF12006DD8A8C6EEFFE9
:101A8000A9C6EEFFAAC6EEFF1200D9CFE6FFDACF55
:101A9000E6FFE1CFD9FFE2CFDAFF12001C500D5C68
:101AA000116E54D80F501200EECFA8F6EECFA9F663
:101AB000EFCFAAF60601AB6B1200EECFA8F6EFCF80
:101AC000A9F6060112000950E66EE66A72EC13F000
:101AD00042E9F3501200A851136EA951146EAA5195
:101AE000156EAB5112000AEBA8F60BEBA9F6060136
:101AF000AA6B1200E96E000EDA20EA6EEF2AEECF32
:101B0000F6FF000EEF22EECFF7FFEF22EECFF8FF49
:101B1000120026D809EBE6FF2AEF0DF0020E1CEFAB
:101B20000DF00A0E1202F3500924D00F126E15EFB9
:101B30000DF016D8B4EC09F044E90009120010EBDE
:101B4000E6FFE66AE66AE66A34EF0DF011500A260F
:101B5000000E0B221200EE50EFCFEAFFE96E1200EA
:101B600005EBE6FF06EBE6FF1200D8DFEE501C6E39
:0E1B7000ED501D6E1D341200D1DF5DEF0DF043
:021B7E00D9CFBD
:101B8000E6FFE1CFD9FF81E957E82DEC11F0BBEC7E
:101B900011F089908992010EE66EE66AE80EE66E13
:101BA000210EA6D92EEC06F0F28ED10EE66E210E95
:101BB00061D9A7C6E6FFAEEC07F041E900090EE1E6
:101BC000B90EE66E210E56D9A7C6E6FF01EC12F05B
:101BD00041E98F0EE66E210E4DD92DD1E66AD9EC82
:101BE00008F041E9E66AA7C6E6FF700EE66E210E30
:101BF0007FD9E66AE66820EC07F042E9016EFF0E45
:101C0000015CF7E0010EE66EA7C6E6FF510EE66E38
:101C1000210E6ED901EBE6FFC4EC07F041E98980A3
:101C20000001580E276F980E286F296B2A6B2B6BBB
:101C30002C6B700E2D6F940E2E6F2F6B306B316BE3
:101C4000326B4FD9236B246B256B266BBDEC07F0F1
:101C5000000949E0400EE66E210E0CD900010CA1EE
:101C600004D02B0EE66E210E03D0180EE66E210E68
:101C700001D914C0E6FFEEEC11F041E900010CAB14
:101C800018D0110EE66E210EF5D8016A080E015C1F
:101C900010E2070ED88001540001EA6A0F25E96EB0
:101CA0001051EA22EFCFE6FFEEEC11F041E9012AF4
:101CB000EDD70E0EE66E210EDDD8016A000113513C
:101CC000015C0DE20150EA6A1125E96E1251EA2227
:101CD000EFCFE6FFDFEC11F041E9012AEFD789727F
:101CE000AAEC07F0B3D700012707000E285B295B99
:101CF0002A5B2751281129112A112BE1E9D8090E55
:101D0000E66E210EBCD8D7D802E299D8FCD7E66A95
:101D1000CBEC06F041E90601580EA86F980EA96FAA
:101D2000AA6B2BC0E6FF2CC0E6FFB7D8ACBFAD69ED
:101D3000AB51A85D0001276F0601AC51A959000104
:101D4000286F0601AD51AA590001296F2A6B29BFDE
:101D50002A692D07000E2E5B2F5B305B2D512E1153
:101D60002F1130112BE1B4D8040EE66E210E87D866
:101D7000A2D802E264D8FCD7E66ACBEC06F041E9CF
:101D80000601700EA86F940EA96FAA6B31C0E6FF12
:101D900032C0E6FF82D8ACBFAD69AB51A85D00018F
:101DA0002D6F0601AC51A95900012E6F0601AD51EE
:101DB000AA5900012F6F306B2FBF30693307000E17
:101DC000345B355B365B335134113511361101E02C
:101DD0003DD781BA0CD0640ED89032BF03D0315DAC
:101DE000000E32590EE2312B000E32230AD032356A
:101DF00004E33151F608FF0E325503E23107000EBD
:101E0000325B81B80CD0640ED8902CBF03D02B5D10
:101E1000000E2C590EE22B2B000E2C230AD02C3551
:101E200004E32B51F608FF0E2C5503E22B07000E9E
:101E30002C5B57D80BD758E9E7CFD9FF1200060122
:101E4000D950040FA86FDACFA9F60150EA6AA82585
:101E5000E96EDA50EA22EF50E66E00010251022BE1
:101E6000EA6A000FE96E010EEA22E552E750EF6ED2
:101E7000012A1200E66EC4EC11F042E91200E66E8F
:101E8000E66AD950040FE66EDACFE6FF89EC12F06D
:101E900049E90001026B016A12002C0EE66E010E88
:101EA000E66EABEC0FF0E552E5CFACF6E7CFABF664
:101EB0000601AD6B1200D950040FE66EDACFE6FFD3
:101EC000C2EC12F042E9F350015C000EF45412002F
:101ED00023C0E6FF24C0E6FF25C0E6FF26C0E6FFDC
:101EE0001200880E336F130E346F356B366B120091
:0A1EF000E66E4CEC11F044E912001C
:061EFA0042E8D9CFE6FF2B
:101F0000DACFE6FFE1CFD9FFE2CFDAFF86E9036A55
:101F10001200F3DF038003D0F0DF01D00382026AF6
:101F2000080EE76ED890013602360050025C02E3DC
:101F3000026E012AE72EF7D703B2120003B081EB3D
:101F400000F003A082EB00F0E552E5CFDAFFE7CF27
:101F5000D9FF43E9120044E8D9CFE6FFDACFE6FF24
:101F6000E1CFD9FFE2CFDAFF8AE980EB04F081EB21
:101F700005F082EB06F002500402F450016EF350BB
:101F8000006E0350076E0502F450036EF350026EAC
:101F900007500402F3500126F4500222E86A03229B
:101FA00006500502F3500126F4500222E86A03228B
:101FB000E552E5CFDAFFE7CFD9FF46E9000C45E867
:101FC000D9CFE6FFDACFE6FFE1CFD9FFE2CFDAFFE4
:101FD0008FE90C6A1200F3DF0C8003D0F0DF01D030
:101FE0000C820B6A0A6A096A086A200EE76ED890AA
:101FF0000436053606360736083609360A360B36F5
:102000000050085C0150095802500A5803500B5800
:1020100009E30050085E0150095A02500A5A035061
:102020000B5A042AE72EE4D70CB212000CB00AD0E7
:1020300088EB00F089EB01F08AEB02F08BEB03F008
:102040000CA008D084EB00F085EB01F086EB02F0E9
:1020500087EB03F0E552E5CFDAFFE7CFD9FF49E997
:10206000120044E8D9CFE6FFDACFE6FFE1CFD9FF8F
:10207000E2CFDAFF8EE980EB08F081EB09F082EB2A
:102080000AF083EB0BF004500802F350006EF4509A
:10209000016E04500902F3500126000EF420026E76
:1020A00004500A02F3500226000EF420036E04507E
:1020B0000B02F350032605500802F3500126F4509A
:1020C0000222000E032205500902F3500226F450AA
:1020D000032205500A02F350032606500802F3506B
:1020E0000226F450032206500902F350032607503B
:1020F0000802F3500326E552E5CFDAFFE7CFD9FF18
:0421000048E9000C9E
:0C21040045256C640047256C64003A20FF
:10211000002066726F6D2000556E696361737420D4
:10212000776974682052535349200042726F61648A
:102130006361737420776974682052535349200097
:102140005265636569766564205061636B657420D0
:102150000020436F6E6E6563746564205065657220
:1021600020206F6E204368616E6E656C20256400D0
:10217000436F6E6E656374696E672050656572208B
:10218000206F6E204368616E6E656C2025640020B0
:102190006973206E6F7420737570706F72746564EC
:1021A00020696E2063757272656E7420636F6E6451
:1021B0006974696F6E2E0D0A000D0A53656C6563B4
:1021C00074696F6E206F66206368616E6E656C2047
:1021D000000D0A5374617274696E6720503250208A
:1021E00044656D6F2E2E2E0053696D706C65205006
:1021F00032502044656D6F204D524632344A34309F
:10220000204E6F64652032000D0A0020202020201F
:1022100020202020202020002000202020202020FE
:1022200020202020202020000D0A0D0A436F6E6E12
:10223000656374696F6E2020202020506565724CA4
:102240006F6E674164647265737320202020205094
:0A225000656572496E666F0D0A00A5
:06225A00D190F26AF16A66
:10226000F06A9368FD0E8B6ED00E946EC00EC76E32
:10227000200EC66E0F0EC16E040E896EF80E926EA1
:102280008B809490F292D08EF19C12006FD883E9EB
:1022900041E9E7CFD9FF120069D885E941E9E7CFE5
:1022A000D9FF120063D881E948E881BA06D0060157
:1022B000AF514AE14ED8010E48D081B806D0060190
:1022C000AF5142E146D8020E40D032EC13F0B4C612
:1022D000A8F6B5C6A9F6B6C6AAF6B7C6ABF6060105
:1022E000A851056EA951066EAA51076EAB51086E32
:1022F000D950050FE96EDACFEAFF0601B051EE5C66
:102300000601A86F0601B151EE580601A96F06013A
:10231000B251EE580601AA6F0601B351EE580601FC
:10232000AB6FA851016EA951026EAA51036EAB5159
:10233000046E0150FF088F0E0254000E0354000E6D
:10234000045402E20601AF6B000E49E9E7CFD9FF62
:102350001200010EAF6F32EC13F0B4C6B0F6B5C682
:10236000B1F6B6C6B2F6B7C6B3F61200D9CFE6FFDD
:06237000E1CFD9FF1200CD
:0A237600948E949C240EAC6E900E21
:10238000AB6E330EAF6E1200D9CFE6FFE1CFD9FFAF
:1023900083E941E800EBF6FF01EBF7FF002A000EAE
:1023A00001220800F550036E035005E003EBE6FF41
:1023B00006D841E9EFD742E9E7CFD9FF12004ED85E
:1023C000ACA2FED700EBADFF41E9E7CFD9FF120089
:1023D000ABA202D0AB98AB88AE5012003FD841E818
:1023E00080EB02F000380F0B0F0B006E00502BD863
:1023F0000F0E0214006E005026D842E9E7CFD9FF35
:1024000012002CD8640E005C05E3640EE66E00EB4F
:10241000E6FF2AD80A0E005C09E30A0EE66E640E97
:10242000E66E00EBE6FF8CEC0FF01ED80A0EE66EAF
:1024300000EBE6FF8CEC0FF041E9E75004D841E9EE
:10244000E7CFD9FF1200F76A4F0FF66E270EF7227B
:102450000800F5CFE6FFB3DF41E91200D9CFE6FF70
:10246000E1CFD9FF82E9120089EC0FF041E9E75092
:0424700023EF12F054
:0C2474001E0EF66E000EF76E000EF86EE5
:1024800000010900F5504E6F0900F5504F6F03E150
:102490004E6701D03DD00900F550496F0900F55055
:1024A0004A6F0900F5504B6F09000900F550E96EBD
:1024B0000900F550EA6E090009000900F5504C6F5B
:1024C0000900F5504D6F09000900F6CF50F0F7CF25
:1024D00051F0F8CF52F049C0F6FF4AC0F7FF4BC0A9
:1024E000F8FF00014C5302E14D5307E00900F5509D
:1024F000EE6E4C07F8E24D07F9D750C0F6FF51C019
:10250000F7FF52C0F8FF00014E07000E4F5BBFD728
:022510001200B7
:0E251200D9CFE6FFDACFE6FFE1CFD9FFE2CF67
:10252000DAFF87E944E8D9CFE6FFDACFE6FFE552E4
:10253000E5500A6EE750096E09EBE6FF0AEBE6FF8D
:1025400000EBE6FF01EBE6FF02EBE6FFD950030FDD
:10255000E66E000EDA20E66ECDEC09F047E9F350A6
:10256000076EF450086E03EBE9FF04EBEAFFEF6A35
:1025700007EBF3FF08EBF4FF45E9E5CFDAFFE7CF20
:04258000D9FF12006D
:0C258400FE0EE3CFE9FFFF0EE3CFEAFFFD
:10259000F36AF46AEE5203E0F34AF42AFBD712001E
:1025A000FF0EE3CFF8FFE552FF0EE3CFF7FFE55252
:1025B000FF0EE3CFF6FFE552E66AE66AE66A090037
:1025C000F55209E0FD0EE32A05E1FE0EE32A02E1E1
:1025D000FF0EE32AF4D7FD0EE3CFB4F6FE0EE3CFF1
:0A25E000B5F6FF0EE3CFB6F61200C9
:0625EA00D9CFE6FFDACFB5
:1025F000E6FFE1CFD9FFE2CFDAFF85E9013415E24A
:1026000000EBE9FF01EBEAFFEECFF3FFEDCFF4FFC4
:10261000EE2A000EEF22F3CFE9FFF4CFEAFF02EB40
:10262000EFFFEF50F36EF46A0DD0FE0E005C05E193
:1026300002EBE6FF84EC13F004D002EBE6FF03ECC0
:1026400000F041E941E9E5CFDAFFE7CFD9FF120019
:10265000050ED56EF184F294F28AD58E0601B86B20
:10266000B96B1200D9CFE6FFE1CFD9FF81E944E889
:10267000F29A036A046AD650016ED750026EF2A431
:1026800006D0032AFF0E0601B85D01E1042A060107
:10269000B8510326B9510426F28A01EBB4F602EBD5
:1026A000B5F603EBB6F604EBB7F645E9E7CFD9FF8D
:0226B000120016
:0E26B200D9CFE6FFE1CFD9FF82E941E89E963D
:1026C000C950026EC69E00EBC9FFC6BEFBD79EA6D0
:1026D000FED742E9E7CFD9FF1200E66AEADF41E917
:0426E000C9501200CB
:0C26E400F36AF46AFF0EE124E96EFF0EB9
:1026F000E220EA6EED6607D02F0EEF6404D03A0EAA
:08270000EF6001D0F32A120082
:08270800FF0EE350ACBA04D04F
:10271000AF6AAB8EAC8A949CACA2FED7AD6EF36E62
:04272000F46A120045
:0C2724001EEE00F02EEE00F0F86A3AEC19
:0E27300012F007EC00F0BFEC0DF0FBD712002A
:02273E00303138
:0F27400032333435363738396162636465660089
:01274F003059
:0F27500031323334353637383941424344454608
:0E27600000EE00F00F0EEE6AEA62FDD71200E6
:02276E003154E4
:08277000454D5048434D0000A7
:0227780000005F
:02277A0000005D
:020000040030CA
:0100010006F8
:010002001FDE
:0100030016E6
:01000500807A
:01000600C138
:00000001FF
